{"abi":[{"type":"receive","stateMutability":"payable"},{"type":"function","name":"approveAndDeposit","inputs":[{"name":"token","type":"address","internalType":"address"},{"name":"multiSigAddress","type":"address","internalType":"address"},{"name":"txHash","type":"bytes32","internalType":"bytes32"},{"name":"depositAmount","type":"uint256","internalType":"uint256"}],"outputs":[],"stateMutability":"nonpayable"},{"type":"function","name":"approveRecovery","inputs":[{"name":"tokens","type":"address[]","internalType":"address[]"},{"name":"spender","type":"address","internalType":"address"}],"outputs":[],"stateMutability":"nonpayable"},{"type":"function","name":"approveToken","inputs":[{"name":"token","type":"address","internalType":"address"},{"name":"spender","type":"address","internalType":"address"},{"name":"amount","type":"uint256","internalType":"uint256"}],"outputs":[{"name":"","type":"bool","internalType":"bool"}],"stateMutability":"nonpayable"},{"type":"function","name":"depositTokenToMultiSig","inputs":[{"name":"multiSigAddress","type":"address","internalType":"address"},{"name":"txHash","type":"bytes32","internalType":"bytes32"},{"name":"amount","type":"uint256","internalType":"uint256"}],"outputs":[],"stateMutability":"nonpayable"},{"type":"function","name":"getAllowance","inputs":[{"name":"token","type":"address","internalType":"address"},{"name":"spender","type":"address","internalType":"address"}],"outputs":[{"name":"","type":"uint256","internalType":"uint256"}],"stateMutability":"view"},{"type":"function","name":"getTokenBalance","inputs":[{"name":"token","type":"address","internalType":"address"}],"outputs":[{"name":"","type":"uint256","internalType":"uint256"}],"stateMutability":"view"}],"bytecode":{"object":"0x6080604052348015600e575f5ffd5b506113b68061001c5f395ff3fe608060405260043610610058575f3560e01c80630af4187d146100635780633aecd0e31461009f57806378b4fc61146100db578063d47c598314610103578063da3e33971461012b578063e60a37cf146101675761005f565b3661005f57005b5f5ffd5b34801561006e575f5ffd5b5061008960048036038101906100849190610984565b61018f565b60405161009691906109da565b60405180910390f35b3480156100aa575f5ffd5b506100c560048036038101906100c091906109f3565b610212565b6040516100d291906109da565b60405180910390f35b3480156100e6575f5ffd5b5061010160048036038101906100fc9190610b6e565b610292565b005b34801561010e575f5ffd5b5061012960048036038101906101249190610c25565b610567565b005b348015610136575f5ffd5b50610151600480360381019061014c9190610c89565b610655565b60405161015e9190610cf3565b60405180910390f35b348015610172575f5ffd5b5061018d60048036038101906101889190610d0c565b6107fc565b005b5f8273ffffffffffffffffffffffffffffffffffffffff1663dd62ed3e30846040518363ffffffff1660e01b81526004016101cb929190610d6b565b602060405180830381865afa1580156101e6573d5f5f3e3d5ffd5b505050506040513d601f19601f8201168201806040525081019061020a9190610da6565b905092915050565b5f8173ffffffffffffffffffffffffffffffffffffffff166370a08231306040518263ffffffff1660e01b815260040161024c9190610dd1565b602060405180830381865afa158015610267573d5f5f3e3d5ffd5b505050506040513d601f19601f8201168201806040525081019061028b9190610da6565b9050919050565b5f73ffffffffffffffffffffffffffffffffffffffff168173ffffffffffffffffffffffffffffffffffffffff1603610300576040517f08c379a00000000000000000000000000000000000000000000000000000000081526004016102f790610e44565b60405180910390fd5b5f8173ffffffffffffffffffffffffffffffffffffffff163b11610359576040517f08c379a000000000000000000000000000000000000000000000000000000000815260040161035090610eac565b60405180910390fd5b5f5f90505b825181101561042c573073ffffffffffffffffffffffffffffffffffffffff1663da3e339784838151811061039657610395610eca565b5b6020026020010151847fffffffffffffffffffffffffffffffffffffffffffffffffffffffffffffffff6040518463ffffffff1660e01b81526004016103de93929190610ef7565b6020604051808303815f875af11580156103fa573d5f5f3e3d5ffd5b505050506040513d601f19601f8201168201806040525081019061041e9190610f56565b50808060010191505061035e565b505f8173ffffffffffffffffffffffffffffffffffffffff16836040516024016104569190611038565b6040516020818303038152906040527f4ae05c7d000000000000000000000000000000000000000000000000000000007bffffffffffffffffffffffffffffffffffffffffffffffffffffffff19166020820180517bffffffffffffffffffffffffffffffffffffffffffffffffffffffff83818316178352505050506040516104e091906110aa565b5f604051808303815f865af19150503d805f8114610519576040519150601f19603f3d011682016040523d82523d5f602084013e61051e565b606091505b5050905080610562576040517f08c379a000000000000000000000000000000000000000000000000000000000815260040161055990611130565b60405180910390fd5b505050565b3073ffffffffffffffffffffffffffffffffffffffff1663da3e33978585846040518463ffffffff1660e01b81526004016105a493929190610ef7565b6020604051808303815f875af11580156105c0573d5f5f3e3d5ffd5b505050506040513d601f19601f820116820180604052508101906105e49190610f56565b503073ffffffffffffffffffffffffffffffffffffffff1663e60a37cf8484846040518463ffffffff1660e01b81526004016106229392919061115d565b5f604051808303815f87803b158015610639575f5ffd5b505af115801561064b573d5f5f3e3d5ffd5b5050505050505050565b5f5f73ffffffffffffffffffffffffffffffffffffffff168473ffffffffffffffffffffffffffffffffffffffff16036106c4576040517f08c379a00000000000000000000000000000000000000000000000000000000081526004016106bb906111dc565b60405180910390fd5b5f73ffffffffffffffffffffffffffffffffffffffff168373ffffffffffffffffffffffffffffffffffffffff1603610732576040517f08c379a000000000000000000000000000000000000000000000000000000000815260040161072990610e44565b60405180910390fd5b5f8473ffffffffffffffffffffffffffffffffffffffff1663095ea7b385856040518363ffffffff1660e01b815260040161076e9291906111fa565b6020604051808303815f875af115801561078a573d5f5f3e3d5ffd5b505050506040513d601f19601f820116820180604052508101906107ae9190610f56565b9050806107f0576040517f08c379a00000000000000000000000000000000000000000000000000000000081526004016107e79061126b565b60405180910390fd5b60019150509392505050565b5f73ffffffffffffffffffffffffffffffffffffffff168373ffffffffffffffffffffffffffffffffffffffff160361086a576040517f08c379a0000000000000000000000000000000000000000000000000000000008152600401610861906112d3565b60405180910390fd5b5f81116108ac576040517f08c379a00000000000000000000000000000000000000000000000000000000081526004016108a39061133b565b60405180910390fd5b8273ffffffffffffffffffffffffffffffffffffffff1663d116c14983836040518363ffffffff1660e01b81526004016108e7929190611359565b5f604051808303815f87803b1580156108fe575f5ffd5b505af1158015610910573d5f5f3e3d5ffd5b50505050505050565b5f604051905090565b5f5ffd5b5f5ffd5b5f73ffffffffffffffffffffffffffffffffffffffff82169050919050565b5f6109538261092a565b9050919050565b61096381610949565b811461096d575f5ffd5b50565b5f8135905061097e8161095a565b92915050565b5f5f6040838503121561099a57610999610922565b5b5f6109a785828601610970565b92505060206109b885828601610970565b9150509250929050565b5f819050919050565b6109d4816109c2565b82525050565b5f6020820190506109ed5f8301846109cb565b92915050565b5f60208284031215610a0857610a07610922565b5b5f610a1584828501610970565b91505092915050565b5f5ffd5b5f601f19601f8301169050919050565b7f4e487b71000000000000000000000000000000000000000000000000000000005f52604160045260245ffd5b610a6882610a22565b810181811067ffffffffffffffff82111715610a8757610a86610a32565b5b80604052505050565b5f610a99610919565b9050610aa58282610a5f565b919050565b5f67ffffffffffffffff821115610ac457610ac3610a32565b5b602082029050602081019050919050565b5f5ffd5b5f610aeb610ae684610aaa565b610a90565b90508083825260208201905060208402830185811115610b0e57610b0d610ad5565b5b835b81811015610b375780610b238882610970565b845260208401935050602081019050610b10565b5050509392505050565b5f82601f830112610b5557610b54610a1e565b5b8135610b65848260208601610ad9565b91505092915050565b5f5f60408385031215610b8457610b83610922565b5b5f83013567ffffffffffffffff811115610ba157610ba0610926565b5b610bad85828601610b41565b9250506020610bbe85828601610970565b9150509250929050565b5f819050919050565b610bda81610bc8565b8114610be4575f5ffd5b50565b5f81359050610bf581610bd1565b92915050565b610c04816109c2565b8114610c0e575f5ffd5b50565b5f81359050610c1f81610bfb565b92915050565b5f5f5f5f60808587031215610c3d57610c3c610922565b5b5f610c4a87828801610970565b9450506020610c5b87828801610970565b9350506040610c6c87828801610be7565b9250506060610c7d87828801610c11565b91505092959194509250565b5f5f5f60608486031215610ca057610c9f610922565b5b5f610cad86828701610970565b9350506020610cbe86828701610970565b9250506040610ccf86828701610c11565b9150509250925092565b5f8115159050919050565b610ced81610cd9565b82525050565b5f602082019050610d065f830184610ce4565b92915050565b5f5f5f60608486031215610d2357610d22610922565b5b5f610d3086828701610970565b9350506020610d4186828701610be7565b9250506040610d5286828701610c11565b9150509250925092565b610d6581610949565b82525050565b5f604082019050610d7e5f830185610d5c565b610d8b6020830184610d5c565b9392505050565b5f81519050610da081610bfb565b92915050565b5f60208284031215610dbb57610dba610922565b5b5f610dc884828501610d92565b91505092915050565b5f602082019050610de45f830184610d5c565b92915050565b5f82825260208201905092915050565b7f496e76616c6964207370656e64657220616464726573730000000000000000005f82015250565b5f610e2e601783610dea565b9150610e3982610dfa565b602082019050919050565b5f6020820190508181035f830152610e5b81610e22565b9050919050565b7f5370656e646572206973206e6f74206120636f6e7472616374000000000000005f82015250565b5f610e96601983610dea565b9150610ea182610e62565b602082019050919050565b5f6020820190508181035f830152610ec381610e8a565b9050919050565b7f4e487b71000000000000000000000000000000000000000000000000000000005f52603260045260245ffd5b5f606082019050610f0a5f830186610d5c565b610f176020830185610d5c565b610f2460408301846109cb565b949350505050565b610f3581610cd9565b8114610f3f575f5ffd5b50565b5f81519050610f5081610f2c565b92915050565b5f60208284031215610f6b57610f6a610922565b5b5f610f7884828501610f42565b91505092915050565b5f81519050919050565b5f82825260208201905092915050565b5f819050602082019050919050565b610fb381610949565b82525050565b5f610fc48383610faa565b60208301905092915050565b5f602082019050919050565b5f610fe682610f81565b610ff08185610f8b565b9350610ffb83610f9b565b805f5b8381101561102b5781516110128882610fb9565b975061101d83610fd0565b925050600181019050610ffe565b5085935050505092915050565b5f6020820190508181035f8301526110508184610fdc565b905092915050565b5f81519050919050565b5f81905092915050565b8281835e5f83830152505050565b5f61108482611058565b61108e8185611062565b935061109e81856020860161106c565b80840191505092915050565b5f6110b5828461107a565b915081905092915050565b7f4661696c656420746f2061646420746f6b656e7320746f20736f6369616c20725f8201527f65636f7665727900000000000000000000000000000000000000000000000000602082015250565b5f61111a602783610dea565b9150611125826110c0565b604082019050919050565b5f6020820190508181035f8301526111478161110e565b9050919050565b61115781610bc8565b82525050565b5f6060820190506111705f830186610d5c565b61117d602083018561114e565b61118a60408301846109cb565b949350505050565b7f496e76616c696420746f6b656e206164647265737300000000000000000000005f82015250565b5f6111c6601583610dea565b91506111d182611192565b602082019050919050565b5f6020820190508181035f8301526111f3816111ba565b9050919050565b5f60408201905061120d5f830185610d5c565b61121a60208301846109cb565b9392505050565b7f4552432d323020617070726f76616c206661696c6564000000000000000000005f82015250565b5f611255601683610dea565b915061126082611221565b602082019050919050565b5f6020820190508181035f83015261128281611249565b9050919050565b7f496e76616c6964204d756c7469536967206164647265737300000000000000005f82015250565b5f6112bd601883610dea565b91506112c882611289565b602082019050919050565b5f6020820190508181035f8301526112ea816112b1565b9050919050565b7f416d6f756e74206d7573742062652067726561746572207468616e20300000005f82015250565b5f611325601d83610dea565b9150611330826112f1565b602082019050919050565b5f6020820190508181035f83015261135281611319565b9050919050565b5f60408201905061136c5f83018561114e565b61137960208301846109cb565b939250505056fea2646970667358221220479ef126106d8f8b587ae1b2797f7e6a30dde2e05e7af28a68ba213b2a9e10cd64736f6c634300081e0033","linkReferences":{}},"methodIdentifiers":{"approveAndDeposit(address,address,bytes32,uint256)":"d47c5983","approveRecovery(address[],address)":"78b4fc61","approveToken(address,address,uint256)":"da3e3397","depositTokenToMultiSig(address,bytes32,uint256)":"e60a37cf","getAllowance(address,address)":"0af4187d","getTokenBalance(address)":"3aecd0e3"},"id":27}