{"abi":[{"type":"constructor","inputs":[{"name":"_signers","type":"address[]","internalType":"address[]"},{"name":"_minSignatures","type":"uint256","internalType":"uint256"},{"name":"_name","type":"string","internalType":"string"}],"stateMutability":"nonpayable"},{"type":"function","name":"depositNative","inputs":[{"name":"txHash","type":"bytes32","internalType":"bytes32"}],"outputs":[],"stateMutability":"payable"},{"type":"function","name":"depositToken","inputs":[{"name":"txHash","type":"bytes32","internalType":"bytes32"},{"name":"amount","type":"uint256","internalType":"uint256"}],"outputs":[],"stateMutability":"nonpayable"},{"type":"function","name":"execute","inputs":[{"name":"txHash","type":"bytes32","internalType":"bytes32"}],"outputs":[],"stateMutability":"nonpayable"},{"type":"function","name":"getAllTransactionHashes","inputs":[],"outputs":[{"name":"","type":"bytes32[]","internalType":"bytes32[]"}],"stateMutability":"view"},{"type":"function","name":"getContractBalanceNative","inputs":[],"outputs":[{"name":"","type":"uint256","internalType":"uint256"}],"stateMutability":"view"},{"type":"function","name":"getContractBalanceToken","inputs":[{"name":"token","type":"address","internalType":"address"}],"outputs":[{"name":"","type":"uint256","internalType":"uint256"}],"stateMutability":"view"},{"type":"function","name":"getSigners","inputs":[],"outputs":[{"name":"","type":"address[]","internalType":"address[]"}],"stateMutability":"view"},{"type":"function","name":"getTransaction","inputs":[{"name":"txHash","type":"bytes32","internalType":"bytes32"}],"outputs":[{"name":"","type":"tuple","internalType":"struct IMultiSig.Transaction","components":[{"name":"to","type":"address","internalType":"address"},{"name":"native","type":"bool","internalType":"bool"},{"name":"token","type":"address","internalType":"address"},{"name":"amount","type":"uint256","internalType":"uint256"},{"name":"proposer","type":"address","internalType":"address"},{"name":"timestamp","type":"uint256","internalType":"uint256"},{"name":"signedCount","type":"uint256","internalType":"uint256"},{"name":"executed","type":"bool","internalType":"bool"},{"name":"balance","type":"uint256","internalType":"uint256"}]}],"stateMutability":"view"},{"type":"function","name":"getTransactionBalance","inputs":[{"name":"txHash","type":"bytes32","internalType":"bytes32"}],"outputs":[{"name":"","type":"uint256","internalType":"uint256"}],"stateMutability":"view"},{"type":"function","name":"getTxSigners","inputs":[{"name":"txHash","type":"bytes32","internalType":"bytes32"}],"outputs":[{"name":"","type":"address[]","internalType":"address[]"}],"stateMutability":"view"},{"type":"function","name":"hasSignedTx","inputs":[{"name":"signer","type":"address","internalType":"address"},{"name":"txHash","type":"bytes32","internalType":"bytes32"}],"outputs":[{"name":"","type":"bool","internalType":"bool"}],"stateMutability":"view"},{"type":"function","name":"isSigner","inputs":[{"name":"signer","type":"address","internalType":"address"}],"outputs":[{"name":"","type":"bool","internalType":"bool"}],"stateMutability":"view"},{"type":"function","name":"minSignatures","inputs":[],"outputs":[{"name":"","type":"uint256","internalType":"uint256"}],"stateMutability":"view"},{"type":"function","name":"name","inputs":[],"outputs":[{"name":"","type":"string","internalType":"string"}],"stateMutability":"view"},{"type":"function","name":"proposeNative","inputs":[{"name":"to","type":"address","internalType":"address"},{"name":"amount","type":"uint256","internalType":"uint256"}],"outputs":[{"name":"txHash","type":"bytes32","internalType":"bytes32"}],"stateMutability":"nonpayable"},{"type":"function","name":"proposeToken","inputs":[{"name":"to","type":"address","internalType":"address"},{"name":"amount","type":"uint256","internalType":"uint256"},{"name":"token","type":"address","internalType":"address"}],"outputs":[{"name":"txHash","type":"bytes32","internalType":"bytes32"}],"stateMutability":"nonpayable"},{"type":"function","name":"sign","inputs":[{"name":"txHash","type":"bytes32","internalType":"bytes32"}],"outputs":[],"stateMutability":"nonpayable"},{"type":"event","name":"Deployed","inputs":[{"name":"signers","type":"address[]","indexed":false,"internalType":"address[]"},{"name":"minSignatures","type":"uint256","indexed":false,"internalType":"uint256"}],"anonymous":false},{"type":"event","name":"Executed","inputs":[{"name":"txHash","type":"bytes32","indexed":true,"internalType":"bytes32"}],"anonymous":false},{"type":"event","name":"Propose","inputs":[{"name":"txHash","type":"bytes32","indexed":false,"internalType":"bytes32"}],"anonymous":false},{"type":"event","name":"Signed","inputs":[{"name":"txHash","type":"bytes32","indexed":true,"internalType":"bytes32"},{"name":"signer","type":"address","indexed":true,"internalType":"address"}],"anonymous":false}],"bytecode":{"object":"0x608060405234801561000f575f5ffd5b506040516139e83803806139e88339818101604052810190610031919061061f565b5f835111610074576040517f08c379a000000000000000000000000000000000000000000000000000000000815260040161006b90610701565b60405180910390fd5b5f82116100b6576040517f08c379a00000000000000000000000000000000000000000000000000000000081526004016100ad9061078f565b60405180910390fd5b82518211156100fa576040517f08c379a00000000000000000000000000000000000000000000000000000000081526004016100f19061081d565b60405180910390fd5b80600390816101099190610a42565b505f5f90505b8351811015610338575f73ffffffffffffffffffffffffffffffffffffffff1684828151811061014257610141610b11565b5b602002602001015173ffffffffffffffffffffffffffffffffffffffff16036101a0576040517f08c379a000000000000000000000000000000000000000000000000000000000815260040161019790610b88565b60405180910390fd5b5f5f8583815181106101b5576101b4610b11565b5b602002602001015173ffffffffffffffffffffffffffffffffffffffff1673ffffffffffffffffffffffffffffffffffffffff1681526020019081526020015f205f9054906101000a900460ff1615610243576040517f08c379a000000000000000000000000000000000000000000000000000000000815260040161023a90610bf0565b60405180910390fd5b60015f5f86848151811061025a57610259610b11565b5b602002602001015173ffffffffffffffffffffffffffffffffffffffff1673ffffffffffffffffffffffffffffffffffffffff1681526020019081526020015f205f6101000a81548160ff02191690831515021790555060018482815181106102c6576102c5610b11565b5b6020026020010151908060018154018082558091505060019003905f5260205f20015f9091909190916101000a81548173ffffffffffffffffffffffffffffffffffffffff021916908373ffffffffffffffffffffffffffffffffffffffff160217905550808060010191505061010f565b50816002819055507fb52cf06a69fb7c0bf35421aeddd37ab609efa7549d6b1a8a9e5164ea1651f5a78383604051610371929190610cd4565b60405180910390a1505050610d02565b5f604051905090565b5f5ffd5b5f5ffd5b5f5ffd5b5f601f19601f8301169050919050565b7f4e487b71000000000000000000000000000000000000000000000000000000005f52604160045260245ffd5b6103dc82610396565b810181811067ffffffffffffffff821117156103fb576103fa6103a6565b5b80604052505050565b5f61040d610381565b905061041982826103d3565b919050565b5f67ffffffffffffffff821115610438576104376103a6565b5b602082029050602081019050919050565b5f5ffd5b5f73ffffffffffffffffffffffffffffffffffffffff82169050919050565b5f6104768261044d565b9050919050565b6104868161046c565b8114610490575f5ffd5b50565b5f815190506104a18161047d565b92915050565b5f6104b96104b48461041e565b610404565b905080838252602082019050602084028301858111156104dc576104db610449565b5b835b8181101561050557806104f18882610493565b8452602084019350506020810190506104de565b5050509392505050565b5f82601f83011261052357610522610392565b5b81516105338482602086016104a7565b91505092915050565b5f819050919050565b61054e8161053c565b8114610558575f5ffd5b50565b5f8151905061056981610545565b92915050565b5f5ffd5b5f67ffffffffffffffff82111561058d5761058c6103a6565b5b61059682610396565b9050602081019050919050565b8281835e5f83830152505050565b5f6105c36105be84610573565b610404565b9050828152602081018484840111156105df576105de61056f565b5b6105ea8482856105a3565b509392505050565b5f82601f83011261060657610605610392565b5b81516106168482602086016105b1565b91505092915050565b5f5f5f606084860312156106365761063561038a565b5b5f84015167ffffffffffffffff8111156106535761065261038e565b5b61065f8682870161050f565b93505060206106708682870161055b565b925050604084015167ffffffffffffffff8111156106915761069061038e565b5b61069d868287016105f2565b9150509250925092565b5f82825260208201905092915050565b7f4d7573742068617665206174206c65617374206f6e65207369676e65720000005f82015250565b5f6106eb601d836106a7565b91506106f6826106b7565b602082019050919050565b5f6020820190508181035f830152610718816106df565b9050919050565b7f4d696e207369676e617475726573206d757374206265206772656174657220745f8201527f68616e2030000000000000000000000000000000000000000000000000000000602082015250565b5f6107796025836106a7565b91506107848261071f565b604082019050919050565b5f6020820190508181035f8301526107a68161076d565b9050919050565b7f4d696e207369676e6174757265732063616e6e6f7420657863656564207369675f8201527f6e657220636f756e740000000000000000000000000000000000000000000000602082015250565b5f6108076029836106a7565b9150610812826107ad565b604082019050919050565b5f6020820190508181035f830152610834816107fb565b9050919050565b5f81519050919050565b7f4e487b71000000000000000000000000000000000000000000000000000000005f52602260045260245ffd5b5f600282049050600182168061088957607f821691505b60208210810361089c5761089b610845565b5b50919050565b5f819050815f5260205f209050919050565b5f6020601f8301049050919050565b5f82821b905092915050565b5f600883026108fe7fffffffffffffffffffffffffffffffffffffffffffffffffffffffffffffffff826108c3565b61090886836108c3565b95508019841693508086168417925050509392505050565b5f819050919050565b5f61094361093e6109398461053c565b610920565b61053c565b9050919050565b5f819050919050565b61095c83610929565b6109706109688261094a565b8484546108cf565b825550505050565b5f5f905090565b610987610978565b610992818484610953565b505050565b5b818110156109b5576109aa5f8261097f565b600181019050610998565b5050565b601f8211156109fa576109cb816108a2565b6109d4846108b4565b810160208510156109e3578190505b6109f76109ef856108b4565b830182610997565b50505b505050565b5f82821c905092915050565b5f610a1a5f19846008026109ff565b1980831691505092915050565b5f610a328383610a0b565b9150826002028217905092915050565b610a4b8261083b565b67ffffffffffffffff811115610a6457610a636103a6565b5b610a6e8254610872565b610a798282856109b9565b5f60209050601f831160018114610aaa575f8415610a98578287015190505b610aa28582610a27565b865550610b09565b601f198416610ab8866108a2565b5f5b82811015610adf57848901518255600182019150602085019450602081019050610aba565b86831015610afc5784890151610af8601f891682610a0b565b8355505b6001600288020188555050505b505050505050565b7f4e487b71000000000000000000000000000000000000000000000000000000005f52603260045260245ffd5b7f496e76616c6964207369676e65722061646472657373000000000000000000005f82015250565b5f610b726016836106a7565b9150610b7d82610b3e565b602082019050919050565b5f6020820190508181035f830152610b9f81610b66565b9050919050565b7f4475706c6963617465207369676e6572000000000000000000000000000000005f82015250565b5f610bda6010836106a7565b9150610be582610ba6565b602082019050919050565b5f6020820190508181035f830152610c0781610bce565b9050919050565b5f81519050919050565b5f82825260208201905092915050565b5f819050602082019050919050565b610c408161046c565b82525050565b5f610c518383610c37565b60208301905092915050565b5f602082019050919050565b5f610c7382610c0e565b610c7d8185610c18565b9350610c8883610c28565b805f5b83811015610cb8578151610c9f8882610c46565b9750610caa83610c5d565b925050600181019050610c8b565b5085935050505092915050565b610cce8161053c565b82525050565b5f6040820190508181035f830152610cec8185610c69565b9050610cfb6020830184610cc5565b9392505050565b612cd980610d0f5f395ff3fe6080604052600436106100fd575f3560e01c806362cc52b81161009457806398660780116100635780639866078014610355578063a03cc4a31461037f578063d116c149146103bb578063e4443249146103e3578063e751f2711461041f576100fd565b806362cc52b81461029d578063799cd333146102c75780637df73e27146102ef57806394cf795e1461032b576100fd565b8063238acaa2116100d0578063238acaa2146101df57806342ef5fbb146102095780634aae13ca146102255780634ddbeb2b14610261576100fd565b806306fdde0314610101578063195f7f981461012b57806319bad73d146101675780631d0744f7146101a3575b5f5ffd5b34801561010c575f5ffd5b50610115610447565b6040516101229190611dca565b60405180910390f35b348015610136575f5ffd5b50610151600480360381019061014c9190611e21565b6104d3565b60405161015e9190611f33565b60405180910390f35b348015610172575f5ffd5b5061018d60048036038101906101889190611e21565b61056f565b60405161019a9190611f6b565b60405180910390f35b3480156101ae575f5ffd5b506101c960048036038101906101c49190611fae565b61058c565b6040516101d69190612006565b60405180910390f35b3480156101ea575f5ffd5b506101f36105ee565b6040516102009190611f6b565b60405180910390f35b610223600480360381019061021e9190611e21565b6105f4565b005b348015610230575f5ffd5b5061024b60048036038101906102469190611e21565b610722565b60405161025891906120f2565b60405180910390f35b34801561026c575f5ffd5b506102876004803603810190610282919061210c565b6108a8565b6040516102949190611f6b565b60405180910390f35b3480156102a8575f5ffd5b506102b161092d565b6040516102be9190611f6b565b60405180910390f35b3480156102d2575f5ffd5b506102ed60048036038101906102e89190611e21565b610934565b005b3480156102fa575f5ffd5b506103156004803603810190610310919061210c565b610c7f565b6040516103229190612006565b60405180910390f35b348015610336575f5ffd5b5061033f610cd0565b60405161034c9190611f33565b60405180910390f35b348015610360575f5ffd5b50610369610d5b565b60405161037691906121ee565b60405180910390f35b34801561038a575f5ffd5b506103a560048036038101906103a09190612238565b610db1565b6040516103b29190612297565b60405180910390f35b3480156103c6575f5ffd5b506103e160048036038101906103dc91906122b0565b6111fd565b005b3480156103ee575f5ffd5b50610409600480360381019061040491906122ee565b6113e3565b6040516104169190612297565b60405180910390f35b34801561042a575f5ffd5b5061044560048036038101906104409190611e21565b61170e565b005b6003805461045490612359565b80601f016020809104026020016040519081016040528092919081815260200182805461048090612359565b80156104cb5780601f106104a2576101008083540402835291602001916104cb565b820191905f5260205f20905b8154815290600101906020018083116104ae57829003601f168201915b505050505081565b606060085f8381526020019081526020015f2080548060200260200160405190810160405280929190818152602001828054801561056357602002820191905f5260205f20905b815f9054906101000a900473ffffffffffffffffffffffffffffffffffffffff1673ffffffffffffffffffffffffffffffffffffffff168152602001906001019080831161051a575b50505050509050919050565b5f60055f8381526020019081526020015f20600701549050919050565b5f60065f8473ffffffffffffffffffffffffffffffffffffffff1673ffffffffffffffffffffffffffffffffffffffff1681526020019081526020015f205f8381526020019081526020015f205f9054906101000a900460ff16905092915050565b60025481565b5f73ffffffffffffffffffffffffffffffffffffffff1660055f8381526020019081526020015f206003015f9054906101000a900473ffffffffffffffffffffffffffffffffffffffff1673ffffffffffffffffffffffffffffffffffffffff1603610695576040517f08c379a000000000000000000000000000000000000000000000000000000000815260040161068c906123d3565b60405180910390fd5b60055f8281526020019081526020015f205f0160149054906101000a900460ff166106f5576040517f08c379a00000000000000000000000000000000000000000000000000000000081526004016106ec9061243b565b60405180910390fd5b3460055f8381526020019081526020015f206007015f8282546107189190612486565b9250508190555050565b61072a611cd1565b60055f8381526020019081526020015f20604051806101200160405290815f82015f9054906101000a900473ffffffffffffffffffffffffffffffffffffffff1673ffffffffffffffffffffffffffffffffffffffff1673ffffffffffffffffffffffffffffffffffffffff1681526020015f820160149054906101000a900460ff16151515158152602001600182015f9054906101000a900473ffffffffffffffffffffffffffffffffffffffff1673ffffffffffffffffffffffffffffffffffffffff1673ffffffffffffffffffffffffffffffffffffffff16815260200160028201548152602001600382015f9054906101000a900473ffffffffffffffffffffffffffffffffffffffff1673ffffffffffffffffffffffffffffffffffffffff1673ffffffffffffffffffffffffffffffffffffffff1681526020016004820154815260200160058201548152602001600682015f9054906101000a900460ff161515151581526020016007820154815250509050919050565b5f5f8290508073ffffffffffffffffffffffffffffffffffffffff166370a08231306040518263ffffffff1660e01b81526004016108e691906124c8565b602060405180830381865afa158015610901573d5f5f3e3d5ffd5b505050506040513d601f19601f8201168201806040525081019061092591906124f5565b915050919050565b5f47905090565b5f5f3373ffffffffffffffffffffffffffffffffffffffff1673ffffffffffffffffffffffffffffffffffffffff1681526020019081526020015f205f9054906101000a900460ff166109bc576040517f08c379a00000000000000000000000000000000000000000000000000000000081526004016109b390612590565b60405180910390fd5b5f60055f8381526020019081526020015f2090505f73ffffffffffffffffffffffffffffffffffffffff16816003015f9054906101000a900473ffffffffffffffffffffffffffffffffffffffff1673ffffffffffffffffffffffffffffffffffffffff1603610a61576040517f08c379a0000000000000000000000000000000000000000000000000000000008152600401610a58906123d3565b60405180910390fd5b806006015f9054906101000a900460ff1615610ab2576040517f08c379a0000000000000000000000000000000000000000000000000000000008152600401610aa9906125f8565b60405180910390fd5b60065f3373ffffffffffffffffffffffffffffffffffffffff1673ffffffffffffffffffffffffffffffffffffffff1681526020019081526020015f205f8381526020019081526020015f205f9054906101000a900460ff1615610b4b576040517f08c379a0000000000000000000000000000000000000000000000000000000008152600401610b4290612660565b60405180910390fd5b600160065f3373ffffffffffffffffffffffffffffffffffffffff1673ffffffffffffffffffffffffffffffffffffffff1681526020019081526020015f205f8481526020019081526020015f205f6101000a81548160ff021916908315150217905550806005015f815480929190610bc39061267e565b919050555060085f8381526020019081526020015f2033908060018154018082558091505060019003905f5260205f20015f9091909190916101000a81548173ffffffffffffffffffffffffffffffffffffffff021916908373ffffffffffffffffffffffffffffffffffffffff1602179055503373ffffffffffffffffffffffffffffffffffffffff16827fdc9da68bd73c4161c8f5bc195573e6649390acdb7090a16542862b767eacac5a60405160405180910390a35050565b5f5f5f8373ffffffffffffffffffffffffffffffffffffffff1673ffffffffffffffffffffffffffffffffffffffff1681526020019081526020015f205f9054906101000a900460ff169050919050565b60606001805480602002602001604051908101604052809291908181526020018280548015610d5157602002820191905f5260205f20905b815f9054906101000a900473ffffffffffffffffffffffffffffffffffffffff1673ffffffffffffffffffffffffffffffffffffffff1681526020019060010190808311610d08575b5050505050905090565b60606007805480602002602001604051908101604052809291908181526020018280548015610da757602002820191905f5260205f20905b815481526020019060010190808311610d93575b5050505050905090565b5f5f73ffffffffffffffffffffffffffffffffffffffff168473ffffffffffffffffffffffffffffffffffffffff1603610e20576040517f08c379a0000000000000000000000000000000000000000000000000000000008152600401610e179061270f565b60405180910390fd5b5f8311610e62576040517f08c379a0000000000000000000000000000000000000000000000000000000008152600401610e5990612777565b60405180910390fd5b5f73ffffffffffffffffffffffffffffffffffffffff168273ffffffffffffffffffffffffffffffffffffffff1603610ed0576040517f08c379a0000000000000000000000000000000000000000000000000000000008152600401610ec7906127df565b60405180910390fd5b5f8290505f8173ffffffffffffffffffffffffffffffffffffffff166318160ddd6040518163ffffffff1660e01b8152600401602060405180830381865afa158015610f1e573d5f5f3e3d5ffd5b505050506040513d601f19601f82011682018060405250810190610f4291906124f5565b11610f82576040517f08c379a0000000000000000000000000000000000000000000000000000000008152600401610f7990612847565b60405180910390fd5b5f6040518061012001604052808773ffffffffffffffffffffffffffffffffffffffff1681526020015f151581526020018573ffffffffffffffffffffffffffffffffffffffff1681526020018681526020013373ffffffffffffffffffffffffffffffffffffffff1681526020014281526020015f81526020015f151581526020015f81525090503360045f81548092919061101e9061267e565b919050556040516020016110339291906128ca565b6040516020818303038152906040528051906020012092508060055f8581526020019081526020015f205f820151815f015f6101000a81548173ffffffffffffffffffffffffffffffffffffffff021916908373ffffffffffffffffffffffffffffffffffffffff1602179055506020820151815f0160146101000a81548160ff0219169083151502179055506040820151816001015f6101000a81548173ffffffffffffffffffffffffffffffffffffffff021916908373ffffffffffffffffffffffffffffffffffffffff160217905550606082015181600201556080820151816003015f6101000a81548173ffffffffffffffffffffffffffffffffffffffff021916908373ffffffffffffffffffffffffffffffffffffffff16021790555060a0820151816004015560c0820151816005015560e0820151816006015f6101000a81548160ff0219169083151502179055506101008201518160070155905050600783908060018154018082558091505060019003905f5260205f20015f90919091909150557f9444faaba7b7c532280ca9e2460e0a845a237e2af2ec1297f43afe45d41bf19b836040516111ec9190612297565b60405180910390a150509392505050565b5f73ffffffffffffffffffffffffffffffffffffffff1660055f8481526020019081526020015f206003015f9054906101000a900473ffffffffffffffffffffffffffffffffffffffff1673ffffffffffffffffffffffffffffffffffffffff160361129e576040517f08c379a0000000000000000000000000000000000000000000000000000000008152600401611295906123d3565b60405180910390fd5b60055f8381526020019081526020015f205f0160149054906101000a900460ff16156112ff576040517f08c379a00000000000000000000000000000000000000000000000000000000081526004016112f690612965565b60405180910390fd5b5f60055f8481526020019081526020015f206001015f9054906101000a900473ffffffffffffffffffffffffffffffffffffffff1690508073ffffffffffffffffffffffffffffffffffffffff166323b872dd3330856040518463ffffffff1660e01b815260040161137393929190612983565b6020604051808303815f875af115801561138f573d5f5f3e3d5ffd5b505050506040513d601f19601f820116820180604052508101906113b391906129e2565b508160055f8581526020019081526020015f206007015f8282546113d79190612486565b92505081905550505050565b5f5f73ffffffffffffffffffffffffffffffffffffffff168373ffffffffffffffffffffffffffffffffffffffff1603611452576040517f08c379a00000000000000000000000000000000000000000000000000000000081526004016114499061270f565b60405180910390fd5b5f8211611494576040517f08c379a000000000000000000000000000000000000000000000000000000000815260040161148b90612777565b60405180910390fd5b5f6040518061012001604052808573ffffffffffffffffffffffffffffffffffffffff1681526020016001151581526020015f73ffffffffffffffffffffffffffffffffffffffff1681526020018481526020013373ffffffffffffffffffffffffffffffffffffffff1681526020014281526020015f81526020015f151581526020015f81525090503360045f8154809291906115319061267e565b919050556040516020016115469291906128ca565b6040516020818303038152906040528051906020012091508060055f8481526020019081526020015f205f820151815f015f6101000a81548173ffffffffffffffffffffffffffffffffffffffff021916908373ffffffffffffffffffffffffffffffffffffffff1602179055506020820151815f0160146101000a81548160ff0219169083151502179055506040820151816001015f6101000a81548173ffffffffffffffffffffffffffffffffffffffff021916908373ffffffffffffffffffffffffffffffffffffffff160217905550606082015181600201556080820151816003015f6101000a81548173ffffffffffffffffffffffffffffffffffffffff021916908373ffffffffffffffffffffffffffffffffffffffff16021790555060a0820151816004015560c0820151816005015560e0820151816006015f6101000a81548160ff0219169083151502179055506101008201518160070155905050600782908060018154018082558091505060019003905f5260205f20015f90919091909150557f9444faaba7b7c532280ca9e2460e0a845a237e2af2ec1297f43afe45d41bf19b826040516116ff9190612297565b60405180910390a15092915050565b5f5f3373ffffffffffffffffffffffffffffffffffffffff1673ffffffffffffffffffffffffffffffffffffffff1681526020019081526020015f205f9054906101000a900460ff16611796576040517f08c379a000000000000000000000000000000000000000000000000000000000815260040161178d90612590565b60405180910390fd5b5f60055f8381526020019081526020015f2090505f73ffffffffffffffffffffffffffffffffffffffff16816003015f9054906101000a900473ffffffffffffffffffffffffffffffffffffffff1673ffffffffffffffffffffffffffffffffffffffff160361183b576040517f08c379a0000000000000000000000000000000000000000000000000000000008152600401611832906123d3565b60405180910390fd5b60025481600501541015611884576040517f08c379a000000000000000000000000000000000000000000000000000000000815260040161187b90612a57565b60405180910390fd5b806006015f9054906101000a900460ff16156118d5576040517f08c379a00000000000000000000000000000000000000000000000000000000081526004016118cc906125f8565b60405180910390fd5b805f0160149054906101000a900460ff1615611a6d57806002015481600701541015611936576040517f08c379a000000000000000000000000000000000000000000000000000000000815260040161192d90612abf565b60405180910390fd5b806002015447101561197d576040517f08c379a000000000000000000000000000000000000000000000000000000000815260040161197490612b27565b60405180910390fd5b6001816006015f6101000a81548160ff0219169083151502179055505f815f015f9054906101000a900473ffffffffffffffffffffffffffffffffffffffff1673ffffffffffffffffffffffffffffffffffffffff1682600201546040516119e490612b72565b5f6040518083038185875af1925050503d805f8114611a1e576040519150601f19603f3d011682016040523d82523d5f602084013e611a23565b606091505b5050905080611a67576040517f08c379a0000000000000000000000000000000000000000000000000000000008152600401611a5e90612bd0565b60405180910390fd5b50611ca0565b806002015481600701541015611ab8576040517f08c379a0000000000000000000000000000000000000000000000000000000008152600401611aaf90612abf565b60405180910390fd5b5f816001015f9054906101000a900473ffffffffffffffffffffffffffffffffffffffff16905081600201548173ffffffffffffffffffffffffffffffffffffffff166370a08231306040518263ffffffff1660e01b8152600401611b1d91906124c8565b602060405180830381865afa158015611b38573d5f5f3e3d5ffd5b505050506040513d601f19601f82011682018060405250810190611b5c91906124f5565b1015611b9d576040517f08c379a0000000000000000000000000000000000000000000000000000000008152600401611b9490612c5e565b60405180910390fd5b6001826006015f6101000a81548160ff0219169083151502179055505f8173ffffffffffffffffffffffffffffffffffffffff1663a9059cbb845f015f9054906101000a900473ffffffffffffffffffffffffffffffffffffffff1685600201546040518363ffffffff1660e01b8152600401611c1b929190612c7c565b6020604051808303815f875af1158015611c37573d5f5f3e3d5ffd5b505050506040513d601f19601f82011682018060405250810190611c5b91906129e2565b905080611c9d576040517f08c379a0000000000000000000000000000000000000000000000000000000008152600401611c9490612bd0565b60405180910390fd5b50505b817fa74c8847d513feba22a0f0cb38d53081abf97562cdb293926ba243689e7c41ca60405160405180910390a25050565b6040518061012001604052805f73ffffffffffffffffffffffffffffffffffffffff1681526020015f151581526020015f73ffffffffffffffffffffffffffffffffffffffff1681526020015f81526020015f73ffffffffffffffffffffffffffffffffffffffff1681526020015f81526020015f81526020015f151581526020015f81525090565b5f81519050919050565b5f82825260208201905092915050565b8281835e5f83830152505050565b5f601f19601f8301169050919050565b5f611d9c82611d5a565b611da68185611d64565b9350611db6818560208601611d74565b611dbf81611d82565b840191505092915050565b5f6020820190508181035f830152611de28184611d92565b905092915050565b5f5ffd5b5f819050919050565b611e0081611dee565b8114611e0a575f5ffd5b50565b5f81359050611e1b81611df7565b92915050565b5f60208284031215611e3657611e35611dea565b5b5f611e4384828501611e0d565b91505092915050565b5f81519050919050565b5f82825260208201905092915050565b5f819050602082019050919050565b5f73ffffffffffffffffffffffffffffffffffffffff82169050919050565b5f611e9e82611e75565b9050919050565b611eae81611e94565b82525050565b5f611ebf8383611ea5565b60208301905092915050565b5f602082019050919050565b5f611ee182611e4c565b611eeb8185611e56565b9350611ef683611e66565b805f5b83811015611f26578151611f0d8882611eb4565b9750611f1883611ecb565b925050600181019050611ef9565b5085935050505092915050565b5f6020820190508181035f830152611f4b8184611ed7565b905092915050565b5f819050919050565b611f6581611f53565b82525050565b5f602082019050611f7e5f830184611f5c565b92915050565b611f8d81611e94565b8114611f97575f5ffd5b50565b5f81359050611fa881611f84565b92915050565b5f5f60408385031215611fc457611fc3611dea565b5b5f611fd185828601611f9a565b9250506020611fe285828601611e0d565b9150509250929050565b5f8115159050919050565b61200081611fec565b82525050565b5f6020820190506120195f830184611ff7565b92915050565b61202881611fec565b82525050565b61203781611f53565b82525050565b61012082015f8201516120525f850182611ea5565b506020820151612065602085018261201f565b5060408201516120786040850182611ea5565b50606082015161208b606085018261202e565b50608082015161209e6080850182611ea5565b5060a08201516120b160a085018261202e565b5060c08201516120c460c085018261202e565b5060e08201516120d760e085018261201f565b506101008201516120ec61010085018261202e565b50505050565b5f610120820190506121065f83018461203d565b92915050565b5f6020828403121561212157612120611dea565b5b5f61212e84828501611f9a565b91505092915050565b5f81519050919050565b5f82825260208201905092915050565b5f819050602082019050919050565b61216981611dee565b82525050565b5f61217a8383612160565b60208301905092915050565b5f602082019050919050565b5f61219c82612137565b6121a68185612141565b93506121b183612151565b805f5b838110156121e15781516121c8888261216f565b97506121d383612186565b9250506001810190506121b4565b5085935050505092915050565b5f6020820190508181035f8301526122068184612192565b905092915050565b61221781611f53565b8114612221575f5ffd5b50565b5f813590506122328161220e565b92915050565b5f5f5f6060848603121561224f5761224e611dea565b5b5f61225c86828701611f9a565b935050602061226d86828701612224565b925050604061227e86828701611f9a565b9150509250925092565b61229181611dee565b82525050565b5f6020820190506122aa5f830184612288565b92915050565b5f5f604083850312156122c6576122c5611dea565b5b5f6122d385828601611e0d565b92505060206122e485828601612224565b9150509250929050565b5f5f6040838503121561230457612303611dea565b5b5f61231185828601611f9a565b925050602061232285828601612224565b9150509250929050565b7f4e487b71000000000000000000000000000000000000000000000000000000005f52602260045260245ffd5b5f600282049050600182168061237057607f821691505b6020821081036123835761238261232c565b5b50919050565b7f5472616e73616374696f6e206e6f7420666f756e6400000000000000000000005f82015250565b5f6123bd601583611d64565b91506123c882612389565b602082019050919050565b5f6020820190508181035f8301526123ea816123b1565b9050919050565b7f5472616e73616374696f6e206973206e6f74206e6174697665000000000000005f82015250565b5f612425601983611d64565b9150612430826123f1565b602082019050919050565b5f6020820190508181035f83015261245281612419565b9050919050565b7f4e487b71000000000000000000000000000000000000000000000000000000005f52601160045260245ffd5b5f61249082611f53565b915061249b83611f53565b92508282019050808211156124b3576124b2612459565b5b92915050565b6124c281611e94565b82525050565b5f6020820190506124db5f8301846124b9565b92915050565b5f815190506124ef8161220e565b92915050565b5f6020828403121561250a57612509611dea565b5b5f612517848285016124e1565b91505092915050565b7f4f6e6c79207369676e6572732063616e2063616c6c20746869732066756e63745f8201527f696f6e0000000000000000000000000000000000000000000000000000000000602082015250565b5f61257a602383611d64565b915061258582612520565b604082019050919050565b5f6020820190508181035f8301526125a78161256e565b9050919050565b7f5472616e73616374696f6e20616c7265616479206578656375746564000000005f82015250565b5f6125e2601c83611d64565b91506125ed826125ae565b602082019050919050565b5f6020820190508181035f83015261260f816125d6565b9050919050565b7f416c7265616479207369676e65640000000000000000000000000000000000005f82015250565b5f61264a600e83611d64565b915061265582612616565b602082019050919050565b5f6020820190508181035f8301526126778161263e565b9050919050565b5f61268882611f53565b91507fffffffffffffffffffffffffffffffffffffffffffffffffffffffffffffffff82036126ba576126b9612459565b5b600182019050919050565b7f496e76616c6964207461726765742061646472657373000000000000000000005f82015250565b5f6126f9601683611d64565b9150612704826126c5565b602082019050919050565b5f6020820190508181035f830152612726816126ed565b9050919050565b7f416d6f756e74206d7573742062652067726561746572207468616e20300000005f82015250565b5f612761601d83611d64565b915061276c8261272d565b602082019050919050565b5f6020820190508181035f83015261278e81612755565b9050919050565b7f496e76616c696420746f6b656e206164647265737300000000000000000000005f82015250565b5f6127c9601583611d64565b91506127d482612795565b602082019050919050565b5f6020820190508181035f8301526127f6816127bd565b9050919050565b7f546f6b656e206e6f74206465706c6f79656400000000000000000000000000005f82015250565b5f612831601283611d64565b915061283c826127fd565b602082019050919050565b5f6020820190508181035f83015261285e81612825565b9050919050565b5f8160601b9050919050565b5f61287b82612865565b9050919050565b5f61288c82612871565b9050919050565b6128a461289f82611e94565b612882565b82525050565b5f819050919050565b6128c46128bf82611f53565b6128aa565b82525050565b5f6128d58285612893565b6014820191506128e582846128b3565b6020820191508190509392505050565b7f5472616e73616374696f6e206973206e6f74206120746f6b656e207472616e735f8201527f616374696f6e0000000000000000000000000000000000000000000000000000602082015250565b5f61294f602683611d64565b915061295a826128f5565b604082019050919050565b5f6020820190508181035f83015261297c81612943565b9050919050565b5f6060820190506129965f8301866124b9565b6129a360208301856124b9565b6129b06040830184611f5c565b949350505050565b6129c181611fec565b81146129cb575f5ffd5b50565b5f815190506129dc816129b8565b92915050565b5f602082840312156129f7576129f6611dea565b5b5f612a04848285016129ce565b91505092915050565b7f4e6f7420656e6f756768207369676e61747572657300000000000000000000005f82015250565b5f612a41601583611d64565b9150612a4c82612a0d565b602082019050919050565b5f6020820190508181035f830152612a6e81612a35565b9050919050565b7f4e6f7420656e6f7567682062616c616e636500000000000000000000000000005f82015250565b5f612aa9601283611d64565b9150612ab482612a75565b602082019050919050565b5f6020820190508181035f830152612ad681612a9d565b9050919050565b7f496e73756666696369656e7420636f6e74726163742062616c616e63650000005f82015250565b5f612b11601d83611d64565b9150612b1c82612add565b602082019050919050565b5f6020820190508181035f830152612b3e81612b05565b9050919050565b5f81905092915050565b50565b5f612b5d5f83612b45565b9150612b6882612b4f565b5f82019050919050565b5f612b7c82612b52565b9150819050919050565b7f457865637574696f6e206661696c6564000000000000000000000000000000005f82015250565b5f612bba601083611d64565b9150612bc582612b86565b602082019050919050565b5f6020820190508181035f830152612be781612bae565b9050919050565b7f496e73756666696369656e7420636f6e747261637420746f6b656e2062616c615f8201527f6e63650000000000000000000000000000000000000000000000000000000000602082015250565b5f612c48602383611d64565b9150612c5382612bee565b604082019050919050565b5f6020820190508181035f830152612c7581612c3c565b9050919050565b5f604082019050612c8f5f8301856124b9565b612c9c6020830184611f5c565b939250505056fea26469706673582212200ea21cfe6a15b1eae635d40dbc82bddbe4aefdc5f371226b9ad007050504622f64736f6c634300081e0033","linkReferences":{}},"methodIdentifiers":{"depositNative(bytes32)":"42ef5fbb","depositToken(bytes32,uint256)":"d116c149","execute(bytes32)":"e751f271","getAllTransactionHashes()":"98660780","getContractBalanceNative()":"62cc52b8","getContractBalanceToken(address)":"4ddbeb2b","getSigners()":"94cf795e","getTransaction(bytes32)":"4aae13ca","getTransactionBalance(bytes32)":"19bad73d","getTxSigners(bytes32)":"195f7f98","hasSignedTx(address,bytes32)":"1d0744f7","isSigner(address)":"7df73e27","minSignatures()":"238acaa2","name()":"06fdde03","proposeNative(address,uint256)":"e4443249","proposeToken(address,uint256,address)":"a03cc4a3","sign(bytes32)":"799cd333"},"id":28}