{"abi":[{"type":"constructor","inputs":[{"name":"_signers","type":"address[]","internalType":"address[]"},{"name":"_minSignatures","type":"uint256","internalType":"uint256"}],"stateMutability":"nonpayable"},{"type":"function","name":"depositNative","inputs":[{"name":"txHash","type":"bytes32","internalType":"bytes32"}],"outputs":[],"stateMutability":"payable"},{"type":"function","name":"depositToken","inputs":[{"name":"txHash","type":"bytes32","internalType":"bytes32"},{"name":"amount","type":"uint256","internalType":"uint256"}],"outputs":[],"stateMutability":"nonpayable"},{"type":"function","name":"execute","inputs":[{"name":"txHash","type":"bytes32","internalType":"bytes32"}],"outputs":[],"stateMutability":"nonpayable"},{"type":"function","name":"getContractBalanceNative","inputs":[],"outputs":[{"name":"","type":"uint256","internalType":"uint256"}],"stateMutability":"view"},{"type":"function","name":"getContractBalanceToken","inputs":[{"name":"token","type":"address","internalType":"address"}],"outputs":[{"name":"","type":"uint256","internalType":"uint256"}],"stateMutability":"view"},{"type":"function","name":"getTransaction","inputs":[{"name":"txHash","type":"bytes32","internalType":"bytes32"}],"outputs":[{"name":"","type":"tuple","internalType":"struct IMultiSig.Transaction","components":[{"name":"to","type":"address","internalType":"address"},{"name":"native","type":"bool","internalType":"bool"},{"name":"token","type":"address","internalType":"address"},{"name":"amount","type":"uint256","internalType":"uint256"},{"name":"proposer","type":"address","internalType":"address"},{"name":"timestamp","type":"uint256","internalType":"uint256"},{"name":"signedCount","type":"uint256","internalType":"uint256"},{"name":"executed","type":"bool","internalType":"bool"},{"name":"balance","type":"uint256","internalType":"uint256"}]}],"stateMutability":"view"},{"type":"function","name":"getTransactionBalance","inputs":[{"name":"txHash","type":"bytes32","internalType":"bytes32"}],"outputs":[{"name":"","type":"uint256","internalType":"uint256"}],"stateMutability":"view"},{"type":"function","name":"hasSignedTx","inputs":[{"name":"signer","type":"address","internalType":"address"},{"name":"txHash","type":"bytes32","internalType":"bytes32"}],"outputs":[{"name":"","type":"bool","internalType":"bool"}],"stateMutability":"view"},{"type":"function","name":"isSigner","inputs":[{"name":"signer","type":"address","internalType":"address"}],"outputs":[{"name":"","type":"bool","internalType":"bool"}],"stateMutability":"view"},{"type":"function","name":"minSignatures","inputs":[],"outputs":[{"name":"","type":"uint256","internalType":"uint256"}],"stateMutability":"view"},{"type":"function","name":"proposeNative","inputs":[{"name":"to","type":"address","internalType":"address"},{"name":"amount","type":"uint256","internalType":"uint256"}],"outputs":[{"name":"txHash","type":"bytes32","internalType":"bytes32"}],"stateMutability":"nonpayable"},{"type":"function","name":"proposeToken","inputs":[{"name":"to","type":"address","internalType":"address"},{"name":"amount","type":"uint256","internalType":"uint256"},{"name":"token","type":"address","internalType":"address"}],"outputs":[{"name":"txHash","type":"bytes32","internalType":"bytes32"}],"stateMutability":"nonpayable"},{"type":"function","name":"sign","inputs":[{"name":"txHash","type":"bytes32","internalType":"bytes32"}],"outputs":[],"stateMutability":"nonpayable"},{"type":"event","name":"Executed","inputs":[{"name":"txHash","type":"bytes32","indexed":true,"internalType":"bytes32"}],"anonymous":false},{"type":"event","name":"Propose","inputs":[{"name":"txHash","type":"bytes32","indexed":false,"internalType":"bytes32"}],"anonymous":false},{"type":"event","name":"Signed","inputs":[{"name":"txHash","type":"bytes32","indexed":true,"internalType":"bytes32"},{"name":"signer","type":"address","indexed":true,"internalType":"address"}],"anonymous":false}],"bytecode":{"object":"0x608060405234801561000f575f5ffd5b50604051612e46380380612e46833981810160405281019061003191906104ab565b5f825111610074576040517f08c379a000000000000000000000000000000000000000000000000000000000815260040161006b9061055f565b60405180910390fd5b5f81116100b6576040517f08c379a00000000000000000000000000000000000000000000000000000000081526004016100ad906105ed565b60405180910390fd5b81518111156100fa576040517f08c379a00000000000000000000000000000000000000000000000000000000081526004016100f19061067b565b60405180910390fd5b5f5f90505b82518110156102ae575f73ffffffffffffffffffffffffffffffffffffffff1683828151811061013257610131610699565b5b602002602001015173ffffffffffffffffffffffffffffffffffffffff1603610190576040517f08c379a000000000000000000000000000000000000000000000000000000000815260040161018790610710565b60405180910390fd5b5f5f8483815181106101a5576101a4610699565b5b602002602001015173ffffffffffffffffffffffffffffffffffffffff1673ffffffffffffffffffffffffffffffffffffffff1681526020019081526020015f205f9054906101000a900460ff1615610233576040517f08c379a000000000000000000000000000000000000000000000000000000000815260040161022a90610778565b60405180910390fd5b60015f5f85848151811061024a57610249610699565b5b602002602001015173ffffffffffffffffffffffffffffffffffffffff1673ffffffffffffffffffffffffffffffffffffffff1681526020019081526020015f205f6101000a81548160ff02191690831515021790555080806001019150506100ff565b50806001819055505050610796565b5f604051905090565b5f5ffd5b5f5ffd5b5f5ffd5b5f601f19601f8301169050919050565b7f4e487b71000000000000000000000000000000000000000000000000000000005f52604160045260245ffd5b610318826102d2565b810181811067ffffffffffffffff82111715610337576103366102e2565b5b80604052505050565b5f6103496102bd565b9050610355828261030f565b919050565b5f67ffffffffffffffff821115610374576103736102e2565b5b602082029050602081019050919050565b5f5ffd5b5f73ffffffffffffffffffffffffffffffffffffffff82169050919050565b5f6103b282610389565b9050919050565b6103c2816103a8565b81146103cc575f5ffd5b50565b5f815190506103dd816103b9565b92915050565b5f6103f56103f08461035a565b610340565b9050808382526020820190506020840283018581111561041857610417610385565b5b835b81811015610441578061042d88826103cf565b84526020840193505060208101905061041a565b5050509392505050565b5f82601f83011261045f5761045e6102ce565b5b815161046f8482602086016103e3565b91505092915050565b5f819050919050565b61048a81610478565b8114610494575f5ffd5b50565b5f815190506104a581610481565b92915050565b5f5f604083850312156104c1576104c06102c6565b5b5f83015167ffffffffffffffff8111156104de576104dd6102ca565b5b6104ea8582860161044b565b92505060206104fb85828601610497565b9150509250929050565b5f82825260208201905092915050565b7f4d7573742068617665206174206c65617374206f6e65207369676e65720000005f82015250565b5f610549601d83610505565b915061055482610515565b602082019050919050565b5f6020820190508181035f8301526105768161053d565b9050919050565b7f4d696e207369676e617475726573206d757374206265206772656174657220745f8201527f68616e2030000000000000000000000000000000000000000000000000000000602082015250565b5f6105d7602583610505565b91506105e28261057d565b604082019050919050565b5f6020820190508181035f830152610604816105cb565b9050919050565b7f4d696e207369676e6174757265732063616e6e6f7420657863656564207369675f8201527f6e657220636f756e740000000000000000000000000000000000000000000000602082015250565b5f610665602983610505565b91506106708261060b565b604082019050919050565b5f6020820190508181035f83015261069281610659565b9050919050565b7f4e487b71000000000000000000000000000000000000000000000000000000005f52603260045260245ffd5b7f496e76616c6964207369676e65722061646472657373000000000000000000005f82015250565b5f6106fa601683610505565b9150610705826106c6565b602082019050919050565b5f6020820190508181035f830152610727816106ee565b9050919050565b7f4475706c6963617465207369676e6572000000000000000000000000000000005f82015250565b5f610762601083610505565b915061076d8261072e565b602082019050919050565b5f6020820190508181035f83015261078f81610756565b9050919050565b6126a3806107a35f395ff3fe6080604052600436106100c1575f3560e01c806362cc52b81161007e578063a03cc4a311610058578063a03cc4a314610289578063d116c149146102c5578063e4443249146102ed578063e751f27114610329576100c1565b806362cc52b8146101fb578063799cd333146102255780637df73e271461024d576100c1565b806319bad73d146100c55780631d0744f714610101578063238acaa21461013d57806342ef5fbb146101675780634aae13ca146101835780634ddbeb2b146101bf575b5f5ffd5b3480156100d0575f5ffd5b506100eb60048036038101906100e691906119d7565b610351565b6040516100f89190611a1a565b60405180910390f35b34801561010c575f5ffd5b5061012760048036038101906101229190611a8d565b61036e565b6040516101349190611ae5565b60405180910390f35b348015610148575f5ffd5b506101516103d0565b60405161015e9190611a1a565b60405180910390f35b610181600480360381019061017c91906119d7565b6103d6565b005b34801561018e575f5ffd5b506101a960048036038101906101a491906119d7565b610504565b6040516101b69190611be0565b60405180910390f35b3480156101ca575f5ffd5b506101e560048036038101906101e09190611bfa565b61068a565b6040516101f29190611a1a565b60405180910390f35b348015610206575f5ffd5b5061020f61070f565b60405161021c9190611a1a565b60405180910390f35b348015610230575f5ffd5b5061024b600480360381019061024691906119d7565b610716565b005b348015610258575f5ffd5b50610273600480360381019061026e9190611bfa565b6109f2565b6040516102809190611ae5565b60405180910390f35b348015610294575f5ffd5b506102af60048036038101906102aa9190611c4f565b610a43565b6040516102bc9190611cae565b60405180910390f35b3480156102d0575f5ffd5b506102eb60048036038101906102e69190611cc7565b610e69565b005b3480156102f8575f5ffd5b50610313600480360381019061030e9190611d05565b61104f565b6040516103209190611cae565b60405180910390f35b348015610334575f5ffd5b5061034f600480360381019061034a91906119d7565b611354565b005b5f60035f8381526020019081526020015f20600701549050919050565b5f60045f8473ffffffffffffffffffffffffffffffffffffffff1673ffffffffffffffffffffffffffffffffffffffff1681526020019081526020015f205f8381526020019081526020015f205f9054906101000a900460ff16905092915050565b60015481565b5f73ffffffffffffffffffffffffffffffffffffffff1660035f8381526020019081526020015f206003015f9054906101000a900473ffffffffffffffffffffffffffffffffffffffff1673ffffffffffffffffffffffffffffffffffffffff1603610477576040517f08c379a000000000000000000000000000000000000000000000000000000000815260040161046e90611d9d565b60405180910390fd5b60035f8281526020019081526020015f205f0160149054906101000a900460ff166104d7576040517f08c379a00000000000000000000000000000000000000000000000000000000081526004016104ce90611e05565b60405180910390fd5b3460035f8381526020019081526020015f206007015f8282546104fa9190611e50565b9250508190555050565b61050c611917565b60035f8381526020019081526020015f20604051806101200160405290815f82015f9054906101000a900473ffffffffffffffffffffffffffffffffffffffff1673ffffffffffffffffffffffffffffffffffffffff1673ffffffffffffffffffffffffffffffffffffffff1681526020015f820160149054906101000a900460ff16151515158152602001600182015f9054906101000a900473ffffffffffffffffffffffffffffffffffffffff1673ffffffffffffffffffffffffffffffffffffffff1673ffffffffffffffffffffffffffffffffffffffff16815260200160028201548152602001600382015f9054906101000a900473ffffffffffffffffffffffffffffffffffffffff1673ffffffffffffffffffffffffffffffffffffffff1673ffffffffffffffffffffffffffffffffffffffff1681526020016004820154815260200160058201548152602001600682015f9054906101000a900460ff161515151581526020016007820154815250509050919050565b5f5f8290508073ffffffffffffffffffffffffffffffffffffffff166370a08231306040518263ffffffff1660e01b81526004016106c89190611e92565b602060405180830381865afa1580156106e3573d5f5f3e3d5ffd5b505050506040513d601f19601f820116820180604052508101906107079190611ebf565b915050919050565b5f47905090565b5f5f3373ffffffffffffffffffffffffffffffffffffffff1673ffffffffffffffffffffffffffffffffffffffff1681526020019081526020015f205f9054906101000a900460ff1661079e576040517f08c379a000000000000000000000000000000000000000000000000000000000815260040161079590611f5a565b60405180910390fd5b5f60035f8381526020019081526020015f2090505f73ffffffffffffffffffffffffffffffffffffffff16816003015f9054906101000a900473ffffffffffffffffffffffffffffffffffffffff1673ffffffffffffffffffffffffffffffffffffffff1603610843576040517f08c379a000000000000000000000000000000000000000000000000000000000815260040161083a90611d9d565b60405180910390fd5b806006015f9054906101000a900460ff1615610894576040517f08c379a000000000000000000000000000000000000000000000000000000000815260040161088b90611fc2565b60405180910390fd5b60045f3373ffffffffffffffffffffffffffffffffffffffff1673ffffffffffffffffffffffffffffffffffffffff1681526020019081526020015f205f8381526020019081526020015f205f9054906101000a900460ff161561092d576040517f08c379a00000000000000000000000000000000000000000000000000000000081526004016109249061202a565b60405180910390fd5b600160045f3373ffffffffffffffffffffffffffffffffffffffff1673ffffffffffffffffffffffffffffffffffffffff1681526020019081526020015f205f8481526020019081526020015f205f6101000a81548160ff021916908315150217905550806005015f8154809291906109a590612048565b91905055503373ffffffffffffffffffffffffffffffffffffffff16827fdc9da68bd73c4161c8f5bc195573e6649390acdb7090a16542862b767eacac5a60405160405180910390a35050565b5f5f5f8373ffffffffffffffffffffffffffffffffffffffff1673ffffffffffffffffffffffffffffffffffffffff1681526020019081526020015f205f9054906101000a900460ff169050919050565b5f5f73ffffffffffffffffffffffffffffffffffffffff168473ffffffffffffffffffffffffffffffffffffffff1603610ab2576040517f08c379a0000000000000000000000000000000000000000000000000000000008152600401610aa9906120d9565b60405180910390fd5b5f8311610af4576040517f08c379a0000000000000000000000000000000000000000000000000000000008152600401610aeb90612141565b60405180910390fd5b5f73ffffffffffffffffffffffffffffffffffffffff168273ffffffffffffffffffffffffffffffffffffffff1603610b62576040517f08c379a0000000000000000000000000000000000000000000000000000000008152600401610b59906121a9565b60405180910390fd5b5f8290505f8173ffffffffffffffffffffffffffffffffffffffff166318160ddd6040518163ffffffff1660e01b8152600401602060405180830381865afa158015610bb0573d5f5f3e3d5ffd5b505050506040513d601f19601f82011682018060405250810190610bd49190611ebf565b11610c14576040517f08c379a0000000000000000000000000000000000000000000000000000000008152600401610c0b90612211565b60405180910390fd5b5f6040518061012001604052808773ffffffffffffffffffffffffffffffffffffffff1681526020015f151581526020018573ffffffffffffffffffffffffffffffffffffffff1681526020018681526020013373ffffffffffffffffffffffffffffffffffffffff1681526020014281526020015f81526020015f151581526020015f81525090503360025f815480929190610cb090612048565b91905055604051602001610cc5929190612294565b6040516020818303038152906040528051906020012092508060035f8581526020019081526020015f205f820151815f015f6101000a81548173ffffffffffffffffffffffffffffffffffffffff021916908373ffffffffffffffffffffffffffffffffffffffff1602179055506020820151815f0160146101000a81548160ff0219169083151502179055506040820151816001015f6101000a81548173ffffffffffffffffffffffffffffffffffffffff021916908373ffffffffffffffffffffffffffffffffffffffff160217905550606082015181600201556080820151816003015f6101000a81548173ffffffffffffffffffffffffffffffffffffffff021916908373ffffffffffffffffffffffffffffffffffffffff16021790555060a0820151816004015560c0820151816005015560e0820151816006015f6101000a81548160ff02191690831515021790555061010082015181600701559050507f9444faaba7b7c532280ca9e2460e0a845a237e2af2ec1297f43afe45d41bf19b83604051610e589190611cae565b60405180910390a150509392505050565b5f73ffffffffffffffffffffffffffffffffffffffff1660035f8481526020019081526020015f206003015f9054906101000a900473ffffffffffffffffffffffffffffffffffffffff1673ffffffffffffffffffffffffffffffffffffffff1603610f0a576040517f08c379a0000000000000000000000000000000000000000000000000000000008152600401610f0190611d9d565b60405180910390fd5b60035f8381526020019081526020015f205f0160149054906101000a900460ff1615610f6b576040517f08c379a0000000000000000000000000000000000000000000000000000000008152600401610f629061232f565b60405180910390fd5b5f60035f8481526020019081526020015f206001015f9054906101000a900473ffffffffffffffffffffffffffffffffffffffff1690508073ffffffffffffffffffffffffffffffffffffffff166323b872dd3330856040518463ffffffff1660e01b8152600401610fdf9392919061234d565b6020604051808303815f875af1158015610ffb573d5f5f3e3d5ffd5b505050506040513d601f19601f8201168201806040525081019061101f91906123ac565b508160035f8581526020019081526020015f206007015f8282546110439190611e50565b92505081905550505050565b5f5f73ffffffffffffffffffffffffffffffffffffffff168373ffffffffffffffffffffffffffffffffffffffff16036110be576040517f08c379a00000000000000000000000000000000000000000000000000000000081526004016110b5906120d9565b60405180910390fd5b5f8211611100576040517f08c379a00000000000000000000000000000000000000000000000000000000081526004016110f790612141565b60405180910390fd5b5f6040518061012001604052808573ffffffffffffffffffffffffffffffffffffffff1681526020016001151581526020015f73ffffffffffffffffffffffffffffffffffffffff1681526020018481526020013373ffffffffffffffffffffffffffffffffffffffff1681526020014281526020015f81526020015f151581526020015f81525090503360025f81548092919061119d90612048565b919050556040516020016111b2929190612294565b6040516020818303038152906040528051906020012091508060035f8481526020019081526020015f205f820151815f015f6101000a81548173ffffffffffffffffffffffffffffffffffffffff021916908373ffffffffffffffffffffffffffffffffffffffff1602179055506020820151815f0160146101000a81548160ff0219169083151502179055506040820151816001015f6101000a81548173ffffffffffffffffffffffffffffffffffffffff021916908373ffffffffffffffffffffffffffffffffffffffff160217905550606082015181600201556080820151816003015f6101000a81548173ffffffffffffffffffffffffffffffffffffffff021916908373ffffffffffffffffffffffffffffffffffffffff16021790555060a0820151816004015560c0820151816005015560e0820151816006015f6101000a81548160ff02191690831515021790555061010082015181600701559050507f9444faaba7b7c532280ca9e2460e0a845a237e2af2ec1297f43afe45d41bf19b826040516113459190611cae565b60405180910390a15092915050565b5f5f3373ffffffffffffffffffffffffffffffffffffffff1673ffffffffffffffffffffffffffffffffffffffff1681526020019081526020015f205f9054906101000a900460ff166113dc576040517f08c379a00000000000000000000000000000000000000000000000000000000081526004016113d390611f5a565b60405180910390fd5b5f60035f8381526020019081526020015f2090505f73ffffffffffffffffffffffffffffffffffffffff16816003015f9054906101000a900473ffffffffffffffffffffffffffffffffffffffff1673ffffffffffffffffffffffffffffffffffffffff1603611481576040517f08c379a000000000000000000000000000000000000000000000000000000000815260040161147890611d9d565b60405180910390fd5b600154816005015410156114ca576040517f08c379a00000000000000000000000000000000000000000000000000000000081526004016114c190612421565b60405180910390fd5b806006015f9054906101000a900460ff161561151b576040517f08c379a000000000000000000000000000000000000000000000000000000000815260040161151290611fc2565b60405180910390fd5b805f0160149054906101000a900460ff16156116b35780600201548160070154101561157c576040517f08c379a000000000000000000000000000000000000000000000000000000000815260040161157390612489565b60405180910390fd5b80600201544710156115c3576040517f08c379a00000000000000000000000000000000000000000000000000000000081526004016115ba906124f1565b60405180910390fd5b6001816006015f6101000a81548160ff0219169083151502179055505f815f015f9054906101000a900473ffffffffffffffffffffffffffffffffffffffff1673ffffffffffffffffffffffffffffffffffffffff16826002015460405161162a9061253c565b5f6040518083038185875af1925050503d805f8114611664576040519150601f19603f3d011682016040523d82523d5f602084013e611669565b606091505b50509050806116ad576040517f08c379a00000000000000000000000000000000000000000000000000000000081526004016116a49061259a565b60405180910390fd5b506118e6565b8060020154816007015410156116fe576040517f08c379a00000000000000000000000000000000000000000000000000000000081526004016116f590612489565b60405180910390fd5b5f816001015f9054906101000a900473ffffffffffffffffffffffffffffffffffffffff16905081600201548173ffffffffffffffffffffffffffffffffffffffff166370a08231306040518263ffffffff1660e01b81526004016117639190611e92565b602060405180830381865afa15801561177e573d5f5f3e3d5ffd5b505050506040513d601f19601f820116820180604052508101906117a29190611ebf565b10156117e3576040517f08c379a00000000000000000000000000000000000000000000000000000000081526004016117da90612628565b60405180910390fd5b6001826006015f6101000a81548160ff0219169083151502179055505f8173ffffffffffffffffffffffffffffffffffffffff1663a9059cbb845f015f9054906101000a900473ffffffffffffffffffffffffffffffffffffffff1685600201546040518363ffffffff1660e01b8152600401611861929190612646565b6020604051808303815f875af115801561187d573d5f5f3e3d5ffd5b505050506040513d601f19601f820116820180604052508101906118a191906123ac565b9050806118e3576040517f08c379a00000000000000000000000000000000000000000000000000000000081526004016118da9061259a565b60405180910390fd5b50505b817fa74c8847d513feba22a0f0cb38d53081abf97562cdb293926ba243689e7c41ca60405160405180910390a25050565b6040518061012001604052805f73ffffffffffffffffffffffffffffffffffffffff1681526020015f151581526020015f73ffffffffffffffffffffffffffffffffffffffff1681526020015f81526020015f73ffffffffffffffffffffffffffffffffffffffff1681526020015f81526020015f81526020015f151581526020015f81525090565b5f5ffd5b5f819050919050565b6119b6816119a4565b81146119c0575f5ffd5b50565b5f813590506119d1816119ad565b92915050565b5f602082840312156119ec576119eb6119a0565b5b5f6119f9848285016119c3565b91505092915050565b5f819050919050565b611a1481611a02565b82525050565b5f602082019050611a2d5f830184611a0b565b92915050565b5f73ffffffffffffffffffffffffffffffffffffffff82169050919050565b5f611a5c82611a33565b9050919050565b611a6c81611a52565b8114611a76575f5ffd5b50565b5f81359050611a8781611a63565b92915050565b5f5f60408385031215611aa357611aa26119a0565b5b5f611ab085828601611a79565b9250506020611ac1858286016119c3565b9150509250929050565b5f8115159050919050565b611adf81611acb565b82525050565b5f602082019050611af85f830184611ad6565b92915050565b611b0781611a52565b82525050565b611b1681611acb565b82525050565b611b2581611a02565b82525050565b61012082015f820151611b405f850182611afe565b506020820151611b536020850182611b0d565b506040820151611b666040850182611afe565b506060820151611b796060850182611b1c565b506080820151611b8c6080850182611afe565b5060a0820151611b9f60a0850182611b1c565b5060c0820151611bb260c0850182611b1c565b5060e0820151611bc560e0850182611b0d565b50610100820151611bda610100850182611b1c565b50505050565b5f61012082019050611bf45f830184611b2b565b92915050565b5f60208284031215611c0f57611c0e6119a0565b5b5f611c1c84828501611a79565b91505092915050565b611c2e81611a02565b8114611c38575f5ffd5b50565b5f81359050611c4981611c25565b92915050565b5f5f5f60608486031215611c6657611c656119a0565b5b5f611c7386828701611a79565b9350506020611c8486828701611c3b565b9250506040611c9586828701611a79565b9150509250925092565b611ca8816119a4565b82525050565b5f602082019050611cc15f830184611c9f565b92915050565b5f5f60408385031215611cdd57611cdc6119a0565b5b5f611cea858286016119c3565b9250506020611cfb85828601611c3b565b9150509250929050565b5f5f60408385031215611d1b57611d1a6119a0565b5b5f611d2885828601611a79565b9250506020611d3985828601611c3b565b9150509250929050565b5f82825260208201905092915050565b7f5472616e73616374696f6e206e6f7420666f756e6400000000000000000000005f82015250565b5f611d87601583611d43565b9150611d9282611d53565b602082019050919050565b5f6020820190508181035f830152611db481611d7b565b9050919050565b7f5472616e73616374696f6e206973206e6f74206e6174697665000000000000005f82015250565b5f611def601983611d43565b9150611dfa82611dbb565b602082019050919050565b5f6020820190508181035f830152611e1c81611de3565b9050919050565b7f4e487b71000000000000000000000000000000000000000000000000000000005f52601160045260245ffd5b5f611e5a82611a02565b9150611e6583611a02565b9250828201905080821115611e7d57611e7c611e23565b5b92915050565b611e8c81611a52565b82525050565b5f602082019050611ea55f830184611e83565b92915050565b5f81519050611eb981611c25565b92915050565b5f60208284031215611ed457611ed36119a0565b5b5f611ee184828501611eab565b91505092915050565b7f4f6e6c79207369676e6572732063616e2063616c6c20746869732066756e63745f8201527f696f6e0000000000000000000000000000000000000000000000000000000000602082015250565b5f611f44602383611d43565b9150611f4f82611eea565b604082019050919050565b5f6020820190508181035f830152611f7181611f38565b9050919050565b7f5472616e73616374696f6e20616c7265616479206578656375746564000000005f82015250565b5f611fac601c83611d43565b9150611fb782611f78565b602082019050919050565b5f6020820190508181035f830152611fd981611fa0565b9050919050565b7f416c7265616479207369676e65640000000000000000000000000000000000005f82015250565b5f612014600e83611d43565b915061201f82611fe0565b602082019050919050565b5f6020820190508181035f83015261204181612008565b9050919050565b5f61205282611a02565b91507fffffffffffffffffffffffffffffffffffffffffffffffffffffffffffffffff820361208457612083611e23565b5b600182019050919050565b7f496e76616c6964207461726765742061646472657373000000000000000000005f82015250565b5f6120c3601683611d43565b91506120ce8261208f565b602082019050919050565b5f6020820190508181035f8301526120f0816120b7565b9050919050565b7f416d6f756e74206d7573742062652067726561746572207468616e20300000005f82015250565b5f61212b601d83611d43565b9150612136826120f7565b602082019050919050565b5f6020820190508181035f8301526121588161211f565b9050919050565b7f496e76616c696420746f6b656e206164647265737300000000000000000000005f82015250565b5f612193601583611d43565b915061219e8261215f565b602082019050919050565b5f6020820190508181035f8301526121c081612187565b9050919050565b7f546f6b656e206e6f74206465706c6f79656400000000000000000000000000005f82015250565b5f6121fb601283611d43565b9150612206826121c7565b602082019050919050565b5f6020820190508181035f830152612228816121ef565b9050919050565b5f8160601b9050919050565b5f6122458261222f565b9050919050565b5f6122568261223b565b9050919050565b61226e61226982611a52565b61224c565b82525050565b5f819050919050565b61228e61228982611a02565b612274565b82525050565b5f61229f828561225d565b6014820191506122af828461227d565b6020820191508190509392505050565b7f5472616e73616374696f6e206973206e6f74206120746f6b656e207472616e735f8201527f616374696f6e0000000000000000000000000000000000000000000000000000602082015250565b5f612319602683611d43565b9150612324826122bf565b604082019050919050565b5f6020820190508181035f8301526123468161230d565b9050919050565b5f6060820190506123605f830186611e83565b61236d6020830185611e83565b61237a6040830184611a0b565b949350505050565b61238b81611acb565b8114612395575f5ffd5b50565b5f815190506123a681612382565b92915050565b5f602082840312156123c1576123c06119a0565b5b5f6123ce84828501612398565b91505092915050565b7f4e6f7420656e6f756768207369676e61747572657300000000000000000000005f82015250565b5f61240b601583611d43565b9150612416826123d7565b602082019050919050565b5f6020820190508181035f830152612438816123ff565b9050919050565b7f4e6f7420656e6f7567682062616c616e636500000000000000000000000000005f82015250565b5f612473601283611d43565b915061247e8261243f565b602082019050919050565b5f6020820190508181035f8301526124a081612467565b9050919050565b7f496e73756666696369656e7420636f6e74726163742062616c616e63650000005f82015250565b5f6124db601d83611d43565b91506124e6826124a7565b602082019050919050565b5f6020820190508181035f830152612508816124cf565b9050919050565b5f81905092915050565b50565b5f6125275f8361250f565b915061253282612519565b5f82019050919050565b5f6125468261251c565b9150819050919050565b7f457865637574696f6e206661696c6564000000000000000000000000000000005f82015250565b5f612584601083611d43565b915061258f82612550565b602082019050919050565b5f6020820190508181035f8301526125b181612578565b9050919050565b7f496e73756666696369656e7420636f6e747261637420746f6b656e2062616c615f8201527f6e63650000000000000000000000000000000000000000000000000000000000602082015250565b5f612612602383611d43565b915061261d826125b8565b604082019050919050565b5f6020820190508181035f83015261263f81612606565b9050919050565b5f6040820190506126595f830185611e83565b6126666020830184611a0b565b939250505056fea2646970667358221220941b372948963680fe0b2cdb56d8ec98aa288e557b6924eb79d80170bc11fcf864736f6c634300081e0033","linkReferences":{}},"methodIdentifiers":{"depositNative(bytes32)":"42ef5fbb","depositToken(bytes32,uint256)":"d116c149","execute(bytes32)":"e751f271","getContractBalanceNative()":"62cc52b8","getContractBalanceToken(address)":"4ddbeb2b","getTransaction(bytes32)":"4aae13ca","getTransactionBalance(bytes32)":"19bad73d","hasSignedTx(address,bytes32)":"1d0744f7","isSigner(address)":"7df73e27","minSignatures()":"238acaa2","proposeNative(address,uint256)":"e4443249","proposeToken(address,uint256,address)":"a03cc4a3","sign(bytes32)":"799cd333"},"id":26}