{"abi":[{"type":"constructor","inputs":[{"name":"_recoveryAddresses","type":"address[]","internalType":"address[]"},{"name":"_quorum","type":"uint256","internalType":"uint256"}],"stateMutability":"nonpayable"},{"type":"function","name":"addRecoveryAddress","inputs":[{"name":"_recoveryAddress","type":"address","internalType":"address"}],"outputs":[],"stateMutability":"nonpayable"},{"type":"function","name":"addToken","inputs":[{"name":"_token","type":"address","internalType":"address"}],"outputs":[],"stateMutability":"nonpayable"},{"type":"function","name":"addTokens","inputs":[{"name":"_tokens","type":"address[]","internalType":"address[]"}],"outputs":[],"stateMutability":"nonpayable"},{"type":"function","name":"addressToRecoverVotes","inputs":[{"name":"","type":"address","internalType":"address"},{"name":"","type":"address","internalType":"address"}],"outputs":[{"name":"","type":"bool","internalType":"bool"}],"stateMutability":"view"},{"type":"function","name":"addressToRecoverVotesCount","inputs":[{"name":"","type":"address","internalType":"address"}],"outputs":[{"name":"","type":"uint256","internalType":"uint256"}],"stateMutability":"view"},{"type":"function","name":"owner","inputs":[],"outputs":[{"name":"","type":"address","internalType":"address"}],"stateMutability":"view"},{"type":"function","name":"quorum","inputs":[],"outputs":[{"name":"","type":"uint256","internalType":"uint256"}],"stateMutability":"view"},{"type":"function","name":"recover","inputs":[{"name":"_recoverTo","type":"address","internalType":"address"}],"outputs":[],"stateMutability":"nonpayable"},{"type":"function","name":"recovered","inputs":[],"outputs":[{"name":"","type":"bool","internalType":"bool"}],"stateMutability":"view"},{"type":"function","name":"recoveryAddressCount","inputs":[],"outputs":[{"name":"","type":"uint256","internalType":"uint256"}],"stateMutability":"view"},{"type":"function","name":"recoveryAddresses","inputs":[{"name":"","type":"address","internalType":"address"}],"outputs":[{"name":"","type":"bool","internalType":"bool"}],"stateMutability":"view"},{"type":"function","name":"removeRecoveryAddress","inputs":[{"name":"_recoveryAddress","type":"address","internalType":"address"}],"outputs":[],"stateMutability":"nonpayable"},{"type":"function","name":"renounceOwnership","inputs":[],"outputs":[],"stateMutability":"nonpayable"},{"type":"function","name":"setQuorum","inputs":[{"name":"_quorum","type":"uint256","internalType":"uint256"}],"outputs":[],"stateMutability":"nonpayable"},{"type":"function","name":"tokenMap","inputs":[{"name":"","type":"address","internalType":"address"}],"outputs":[{"name":"","type":"bool","internalType":"bool"}],"stateMutability":"view"},{"type":"function","name":"tokens","inputs":[{"name":"","type":"uint256","internalType":"uint256"}],"outputs":[{"name":"","type":"address","internalType":"address"}],"stateMutability":"view"},{"type":"function","name":"transferOwnership","inputs":[{"name":"newOwner","type":"address","internalType":"address"}],"outputs":[],"stateMutability":"nonpayable"},{"type":"event","name":"OwnershipTransferred","inputs":[{"name":"previousOwner","type":"address","indexed":true,"internalType":"address"},{"name":"newOwner","type":"address","indexed":true,"internalType":"address"}],"anonymous":false},{"type":"error","name":"OwnableInvalidOwner","inputs":[{"name":"owner","type":"address","internalType":"address"}]},{"type":"error","name":"OwnableUnauthorizedAccount","inputs":[{"name":"account","type":"address","internalType":"address"}]}],"bytecode":{"object":"0x60a060405234801561000f575f5ffd5b506040516121d93803806121d98339818101604052810190610031919061045d565b335f73ffffffffffffffffffffffffffffffffffffffff168173ffffffffffffffffffffffffffffffffffffffff16036100a2575f6040517f1e4fbdf700000000000000000000000000000000000000000000000000000000815260040161009991906104c6565b60405180910390fd5b6100b1816101ae60201b60201c565b503373ffffffffffffffffffffffffffffffffffffffff1660808173ffffffffffffffffffffffffffffffffffffffff16815250505f5f90505b8251811015610186576001805f85848151811061010b5761010a6104df565b5b602002602001015173ffffffffffffffffffffffffffffffffffffffff1673ffffffffffffffffffffffffffffffffffffffff1681526020019081526020015f205f6101000a81548160ff02191690831515021790555060025f81548092919061017490610539565b919050555080806001019150506100eb565b50806003819055505f60045f6101000a81548160ff0219169083151502179055505050610580565b5f5f5f9054906101000a900473ffffffffffffffffffffffffffffffffffffffff169050815f5f6101000a81548173ffffffffffffffffffffffffffffffffffffffff021916908373ffffffffffffffffffffffffffffffffffffffff1602179055508173ffffffffffffffffffffffffffffffffffffffff168173ffffffffffffffffffffffffffffffffffffffff167f8be0079c531659141344cd1fd0a4f28419497f9722a3daafe3b4186f6b6457e060405160405180910390a35050565b5f604051905090565b5f5ffd5b5f5ffd5b5f5ffd5b5f601f19601f8301169050919050565b7f4e487b71000000000000000000000000000000000000000000000000000000005f52604160045260245ffd5b6102ca82610284565b810181811067ffffffffffffffff821117156102e9576102e8610294565b5b80604052505050565b5f6102fb61026f565b905061030782826102c1565b919050565b5f67ffffffffffffffff82111561032657610325610294565b5b602082029050602081019050919050565b5f5ffd5b5f73ffffffffffffffffffffffffffffffffffffffff82169050919050565b5f6103648261033b565b9050919050565b6103748161035a565b811461037e575f5ffd5b50565b5f8151905061038f8161036b565b92915050565b5f6103a76103a28461030c565b6102f2565b905080838252602082019050602084028301858111156103ca576103c9610337565b5b835b818110156103f357806103df8882610381565b8452602084019350506020810190506103cc565b5050509392505050565b5f82601f83011261041157610410610280565b5b8151610421848260208601610395565b91505092915050565b5f819050919050565b61043c8161042a565b8114610446575f5ffd5b50565b5f8151905061045781610433565b92915050565b5f5f6040838503121561047357610472610278565b5b5f83015167ffffffffffffffff8111156104905761048f61027c565b5b61049c858286016103fd565b92505060206104ad85828601610449565b9150509250929050565b6104c08161035a565b82525050565b5f6020820190506104d95f8301846104b7565b92915050565b7f4e487b71000000000000000000000000000000000000000000000000000000005f52603260045260245ffd5b7f4e487b71000000000000000000000000000000000000000000000000000000005f52601160045260245ffd5b5f6105438261042a565b91507fffffffffffffffffffffffffffffffffffffffffffffffffffffffffffffffff82036105755761057461050c565b5b600182019050919050565b608051611c2c6105ad5f395f818161076b01528181610808015281816108bd01526109600152611c2c5ff3fe608060405234801561000f575f5ffd5b5060043610610108575f3560e01c8063715018a6116100a0578063a63089091161006f578063a6308909146102b4578063c1ba4e59146102d0578063d48bfca7146102ec578063f2fde38b14610308578063f5c86ec51461032457610108565b8063715018a6146102405780637e3bfa1d1461024a5780638da5cb5b146102665780638db6bfb31461028457610108565b8063298e9a27116100dc578063298e9a271461019457806346cde53f146101c45780634ae05c7d146101f45780634f64b2be1461021057610108565b80624aca6e1461010c5780630cd865ec1461013c5780630e78df61146101585780631703a01814610176575b5f5ffd5b610126600480360381019061012191906113e7565b610342565b604051610133919061142c565b60405180910390f35b610156600480360381019061015191906113e7565b61035f565b005b6101606109f8565b60405161016d919061142c565b60405180910390f35b61017e610a0a565b60405161018b919061145d565b60405180910390f35b6101ae60048036038101906101a99190611476565b610a10565b6040516101bb919061142c565b60405180910390f35b6101de60048036038101906101d991906113e7565b610a3a565b6040516101eb919061142c565b60405180910390f35b61020e60048036038101906102099190611604565b610a57565b005b61022a60048036038101906102259190611675565b610c1f565b60405161023791906116af565b60405180910390f35b610248610c5a565b005b610264600480360381019061025f91906113e7565b610c6d565b005b61026e610e0d565b60405161027b91906116af565b60405180910390f35b61029e600480360381019061029991906113e7565b610e34565b6040516102ab919061145d565b60405180910390f35b6102ce60048036038101906102c991906113e7565b610e49565b005b6102ea60048036038101906102e59190611675565b610f5d565b005b610306600480360381019061030191906113e7565b611045565b005b610322600480360381019061031d91906113e7565b6111a3565b005b61032c611227565b604051610339919061145d565b60405180910390f35b6005602052805f5260405f205f915054906101000a900460ff1681565b60015f3373ffffffffffffffffffffffffffffffffffffffff1673ffffffffffffffffffffffffffffffffffffffff1681526020019081526020015f205f9054906101000a900460ff166103e8576040517f08c379a00000000000000000000000000000000000000000000000000000000081526004016103df90611722565b60405180910390fd5b60045f9054906101000a900460ff1615610437576040517f08c379a000000000000000000000000000000000000000000000000000000000815260040161042e9061178a565b60405180910390fd5b5f73ffffffffffffffffffffffffffffffffffffffff168173ffffffffffffffffffffffffffffffffffffffff16036104a5576040517f08c379a000000000000000000000000000000000000000000000000000000000815260040161049c906117f2565b60405180910390fd5b60075f8273ffffffffffffffffffffffffffffffffffffffff1673ffffffffffffffffffffffffffffffffffffffff1681526020019081526020015f205f3373ffffffffffffffffffffffffffffffffffffffff1673ffffffffffffffffffffffffffffffffffffffff1681526020019081526020015f205f9054906101000a900460ff161561056a576040517f08c379a00000000000000000000000000000000000000000000000000000000081526004016105619061185a565b60405180910390fd5b600160075f8373ffffffffffffffffffffffffffffffffffffffff1673ffffffffffffffffffffffffffffffffffffffff1681526020019081526020015f205f3373ffffffffffffffffffffffffffffffffffffffff1673ffffffffffffffffffffffffffffffffffffffff1681526020019081526020015f205f6101000a81548160ff02191690831515021790555060085f8273ffffffffffffffffffffffffffffffffffffffff1673ffffffffffffffffffffffffffffffffffffffff1681526020019081526020015f205f815480929190610647906118a5565b919050555060035460085f8373ffffffffffffffffffffffffffffffffffffffff1673ffffffffffffffffffffffffffffffffffffffff1681526020019081526020015f2054106109f557600160045f6101000a81548160ff0219169083151502179055505f5f90505b6006805490508110156109f3575f600682815481106106d3576106d26118ec565b5b905f5260205f20015f9054906101000a900473ffffffffffffffffffffffffffffffffffffffff16905060055f8273ffffffffffffffffffffffffffffffffffffffff1673ffffffffffffffffffffffffffffffffffffffff1681526020019081526020015f205f9054906101000a900460ff16156109e5575f8173ffffffffffffffffffffffffffffffffffffffff1663dd62ed3e7f0000000000000000000000000000000000000000000000000000000000000000306040518363ffffffff1660e01b81526004016107a8929190611919565b602060405180830381865afa1580156107c3573d5f5f3e3d5ffd5b505050506040513d601f19601f820116820180604052508101906107e79190611954565b90505f8273ffffffffffffffffffffffffffffffffffffffff166370a082317f00000000000000000000000000000000000000000000000000000000000000006040518263ffffffff1660e01b815260040161084391906116af565b602060405180830381865afa15801561085e573d5f5f3e3d5ffd5b505050506040513d601f19601f820116820180604052508101906108829190611954565b90505f8211801561089257505f81115b156109e25780821115610942578273ffffffffffffffffffffffffffffffffffffffff166323b872dd7f000000000000000000000000000000000000000000000000000000000000000087846040518463ffffffff1660e01b81526004016108fc9392919061197f565b6020604051808303815f875af1158015610918573d5f5f3e3d5ffd5b505050506040513d601f19601f8201168201806040525081019061093c91906119de565b506109e1565b8273ffffffffffffffffffffffffffffffffffffffff166323b872dd7f000000000000000000000000000000000000000000000000000000000000000087856040518463ffffffff1660e01b815260040161099f9392919061197f565b6020604051808303815f875af11580156109bb573d5f5f3e3d5ffd5b505050506040513d601f19601f820116820180604052508101906109df91906119de565b505b5b50505b5080806001019150506106b1565b505b50565b60045f9054906101000a900460ff1681565b60035481565b6007602052815f5260405f20602052805f5260405f205f915091509054906101000a900460ff1681565b6001602052805f5260405f205f915054906101000a900460ff1681565b610a5f61122d565b60045f9054906101000a900460ff1615610aae576040517f08c379a0000000000000000000000000000000000000000000000000000000008152600401610aa59061178a565b60405180910390fd5b5f5f90505b8151811015610c1b5760055f838381518110610ad257610ad16118ec565b5b602002602001015173ffffffffffffffffffffffffffffffffffffffff1673ffffffffffffffffffffffffffffffffffffffff1681526020019081526020015f205f9054906101000a900460ff16610c0e57600160055f848481518110610b3c57610b3b6118ec565b5b602002602001015173ffffffffffffffffffffffffffffffffffffffff1673ffffffffffffffffffffffffffffffffffffffff1681526020019081526020015f205f6101000a81548160ff0219169083151502179055506006828281518110610ba857610ba76118ec565b5b6020026020010151908060018154018082558091505060019003905f5260205f20015f9091909190916101000a81548173ffffffffffffffffffffffffffffffffffffffff021916908373ffffffffffffffffffffffffffffffffffffffff1602179055505b8080600101915050610ab3565b5050565b60068181548110610c2e575f80fd5b905f5260205f20015f915054906101000a900473ffffffffffffffffffffffffffffffffffffffff1681565b610c6261122d565b610c6b5f6112b4565b565b610c7561122d565b60045f9054906101000a900460ff1615610cc4576040517f08c379a0000000000000000000000000000000000000000000000000000000008152600401610cbb9061178a565b60405180910390fd5b60015f8273ffffffffffffffffffffffffffffffffffffffff1673ffffffffffffffffffffffffffffffffffffffff1681526020019081526020015f205f9054906101000a900460ff1615610e0a5760025f815480929190610d2590611a09565b91905055506003546002541015610d71576040517f08c379a0000000000000000000000000000000000000000000000000000000008152600401610d6890611a7a565b60405180910390fd5b5f60025411610db5576040517f08c379a0000000000000000000000000000000000000000000000000000000008152600401610dac90611ae2565b60405180910390fd5b5f60015f8373ffffffffffffffffffffffffffffffffffffffff1673ffffffffffffffffffffffffffffffffffffffff1681526020019081526020015f205f6101000a81548160ff0219169083151502179055505b50565b5f5f5f9054906101000a900473ffffffffffffffffffffffffffffffffffffffff16905090565b6008602052805f5260405f205f915090505481565b610e5161122d565b60045f9054906101000a900460ff1615610ea0576040517f08c379a0000000000000000000000000000000000000000000000000000000008152600401610e979061178a565b60405180910390fd5b60015f8273ffffffffffffffffffffffffffffffffffffffff1673ffffffffffffffffffffffffffffffffffffffff1681526020019081526020015f205f9054906101000a900460ff16610f5a576001805f8373ffffffffffffffffffffffffffffffffffffffff1673ffffffffffffffffffffffffffffffffffffffff1681526020019081526020015f205f6101000a81548160ff02191690831515021790555060025f815480929190610f54906118a5565b91905055505b50565b610f6561122d565b60045f9054906101000a900460ff1615610fb4576040517f08c379a0000000000000000000000000000000000000000000000000000000008152600401610fab9061178a565b60405180910390fd5b5f8111610ff6576040517f08c379a0000000000000000000000000000000000000000000000000000000008152600401610fed90611b4a565b60405180910390fd5b60025481111561103b576040517f08c379a000000000000000000000000000000000000000000000000000000000815260040161103290611bd8565b60405180910390fd5b8060038190555050565b61104d61122d565b60045f9054906101000a900460ff161561109c576040517f08c379a00000000000000000000000000000000000000000000000000000000081526004016110939061178a565b60405180910390fd5b60055f8273ffffffffffffffffffffffffffffffffffffffff1673ffffffffffffffffffffffffffffffffffffffff1681526020019081526020015f205f9054906101000a900460ff166111a057600160055f8373ffffffffffffffffffffffffffffffffffffffff1673ffffffffffffffffffffffffffffffffffffffff1681526020019081526020015f205f6101000a81548160ff021916908315150217905550600681908060018154018082558091505060019003905f5260205f20015f9091909190916101000a81548173ffffffffffffffffffffffffffffffffffffffff021916908373ffffffffffffffffffffffffffffffffffffffff1602179055505b50565b6111ab61122d565b5f73ffffffffffffffffffffffffffffffffffffffff168173ffffffffffffffffffffffffffffffffffffffff160361121b575f6040517f1e4fbdf700000000000000000000000000000000000000000000000000000000815260040161121291906116af565b60405180910390fd5b611224816112b4565b50565b60025481565b611235611375565b73ffffffffffffffffffffffffffffffffffffffff16611253610e0d565b73ffffffffffffffffffffffffffffffffffffffff16146112b257611276611375565b6040517f118cdaa70000000000000000000000000000000000000000000000000000000081526004016112a991906116af565b60405180910390fd5b565b5f5f5f9054906101000a900473ffffffffffffffffffffffffffffffffffffffff169050815f5f6101000a81548173ffffffffffffffffffffffffffffffffffffffff021916908373ffffffffffffffffffffffffffffffffffffffff1602179055508173ffffffffffffffffffffffffffffffffffffffff168173ffffffffffffffffffffffffffffffffffffffff167f8be0079c531659141344cd1fd0a4f28419497f9722a3daafe3b4186f6b6457e060405160405180910390a35050565b5f33905090565b5f604051905090565b5f5ffd5b5f5ffd5b5f73ffffffffffffffffffffffffffffffffffffffff82169050919050565b5f6113b68261138d565b9050919050565b6113c6816113ac565b81146113d0575f5ffd5b50565b5f813590506113e1816113bd565b92915050565b5f602082840312156113fc576113fb611385565b5b5f611409848285016113d3565b91505092915050565b5f8115159050919050565b61142681611412565b82525050565b5f60208201905061143f5f83018461141d565b92915050565b5f819050919050565b61145781611445565b82525050565b5f6020820190506114705f83018461144e565b92915050565b5f5f6040838503121561148c5761148b611385565b5b5f611499858286016113d3565b92505060206114aa858286016113d3565b9150509250929050565b5f5ffd5b5f601f19601f8301169050919050565b7f4e487b71000000000000000000000000000000000000000000000000000000005f52604160045260245ffd5b6114fe826114b8565b810181811067ffffffffffffffff8211171561151d5761151c6114c8565b5b80604052505050565b5f61152f61137c565b905061153b82826114f5565b919050565b5f67ffffffffffffffff82111561155a576115596114c8565b5b602082029050602081019050919050565b5f5ffd5b5f61158161157c84611540565b611526565b905080838252602082019050602084028301858111156115a4576115a361156b565b5b835b818110156115cd57806115b988826113d3565b8452602084019350506020810190506115a6565b5050509392505050565b5f82601f8301126115eb576115ea6114b4565b5b81356115fb84826020860161156f565b91505092915050565b5f6020828403121561161957611618611385565b5b5f82013567ffffffffffffffff81111561163657611635611389565b5b611642848285016115d7565b91505092915050565b61165481611445565b811461165e575f5ffd5b50565b5f8135905061166f8161164b565b92915050565b5f6020828403121561168a57611689611385565b5b5f61169784828501611661565b91505092915050565b6116a9816113ac565b82525050565b5f6020820190506116c25f8301846116a0565b92915050565b5f82825260208201905092915050565b7f4e6f742061207265636f766572792061646472657373000000000000000000005f82015250565b5f61170c6016836116c8565b9150611717826116d8565b602082019050919050565b5f6020820190508181035f83015261173981611700565b9050919050565b7f416c7265616479207265636f76657265640000000000000000000000000000005f82015250565b5f6117746011836116c8565b915061177f82611740565b602082019050919050565b5f6020820190508181035f8301526117a181611768565b9050919050565b7f496e76616c6964207265636f76657279206164647265737300000000000000005f82015250565b5f6117dc6018836116c8565b91506117e7826117a8565b602082019050919050565b5f6020820190508181035f830152611809816117d0565b9050919050565b7f416c726561647920766f746564000000000000000000000000000000000000005f82015250565b5f611844600d836116c8565b915061184f82611810565b602082019050919050565b5f6020820190508181035f83015261187181611838565b9050919050565b7f4e487b71000000000000000000000000000000000000000000000000000000005f52601160045260245ffd5b5f6118af82611445565b91507fffffffffffffffffffffffffffffffffffffffffffffffffffffffffffffffff82036118e1576118e0611878565b5b600182019050919050565b7f4e487b71000000000000000000000000000000000000000000000000000000005f52603260045260245ffd5b5f60408201905061192c5f8301856116a0565b61193960208301846116a0565b9392505050565b5f8151905061194e8161164b565b92915050565b5f6020828403121561196957611968611385565b5b5f61197684828501611940565b91505092915050565b5f6060820190506119925f8301866116a0565b61199f60208301856116a0565b6119ac604083018461144e565b949350505050565b6119bd81611412565b81146119c7575f5ffd5b50565b5f815190506119d8816119b4565b92915050565b5f602082840312156119f3576119f2611385565b5b5f611a00848285016119ca565b91505092915050565b5f611a1382611445565b91505f8203611a2557611a24611878565b5b600182039050919050565b7f51756f72756d206e6f74206d65740000000000000000000000000000000000005f82015250565b5f611a64600e836116c8565b9150611a6f82611a30565b602082019050919050565b5f6020820190508181035f830152611a9181611a58565b9050919050565b7f4e6f207265636f766572792061646472657373657300000000000000000000005f82015250565b5f611acc6015836116c8565b9150611ad782611a98565b602082019050919050565b5f6020820190508181035f830152611af981611ac0565b9050919050565b7f51756f72756d206d7573742062652067726561746572207468616e20300000005f82015250565b5f611b34601d836116c8565b9150611b3f82611b00565b602082019050919050565b5f6020820190508181035f830152611b6181611b28565b9050919050565b7f51756f72756d2063616e6e6f742062652067726561746572207468616e2074685f8201527f65206e756d626572206f66207265636f76657279206164647265737365730000602082015250565b5f611bc2603e836116c8565b9150611bcd82611b68565b604082019050919050565b5f6020820190508181035f830152611bef81611bb6565b905091905056fea2646970667358221220a69735ceb5e3159dba90b5679e0798274b4e16df59d80b12597ed828aa65791664736f6c634300081e0033","linkReferences":{}},"methodIdentifiers":{"addRecoveryAddress(address)":"a6308909","addToken(address)":"d48bfca7","addTokens(address[])":"4ae05c7d","addressToRecoverVotes(address,address)":"298e9a27","addressToRecoverVotesCount(address)":"8db6bfb3","owner()":"8da5cb5b","quorum()":"1703a018","recover(address)":"0cd865ec","recovered()":"0e78df61","recoveryAddressCount()":"f5c86ec5","recoveryAddresses(address)":"46cde53f","removeRecoveryAddress(address)":"7e3bfa1d","renounceOwnership()":"715018a6","setQuorum(uint256)":"c1ba4e59","tokenMap(address)":"004aca6e","tokens(uint256)":"4f64b2be","transferOwnership(address)":"f2fde38b"},"id":29}